:020000040000fa
:080000000001040000000000f3
:020000040000fa
:10020000cf8d20000eff20000e01880000000000ae
:100210000c0007002003210001002000110007004e
:10022000000020000000e000020032000000020098
:1002300000000000400f0200000000000040da0053
:100240000000fe004440a900c00120000000e000c2
:100250000300320000002000a00188004440a800f4
:100260000000060091018800800078000000eb008b
:1002700015003700e280400032a0b4009101ba00be
:10028000e280400032a0b4009102ba00e280400057
:1002900032a0b4000002eb00472bde00f507b200ed
:1002a000602ce10004003a000059eb008301e900f2
:1002b000fdff3e00040037006128e100010032002c
:1002c0000082eb00040007001101ba000200e00008
:1002d000e8ff3a00000006003159ba008301e90046
:1002e0000c0032002159ba008301e90008003200f5
:1002f0000400e00003003a00e280400032a0b400b5
:10030000f5ff370011d9ba008301e900faff3a007e
:100310008100e800e180400032a0b4000000060047
:100320000040da000000fe000a00fa0080017800b8
:10033000e20f500028003e00d0468000e10f500040
:1003400008003200e02120000000e000050032003b
:100350006421200085212000a62120008001780052
:1003600004003700c4202000e520200006212000e2
:1003700043212000144090000004e00004003500f8
:100380008009eb00144090000074a0001042980017
:10039000154090000028a30003003a00154090008b
:1003a0000024a000904298008001eb000700370075
:1003b000154090000008a300fdff320063c07800e4
:1003c0000000fb00000b78008301e800828f5100e1
:1003d000f7ff3a000800370030002000b0bf9f0050
:1003e000c3bf9f00d1bf9f00e2bf9f006a8057003c
:1003f00000c0da006fb99700020078000080fa00b0
:1004000000000600889fbe008a9fbe00010578009c
:100410000100e0000400350008003c000000e0009e
:10042000200032000500370060001000e080180056
:1004300002003b0001f02c001a0037000004be004f
:100440006011b8006b0920000982cf00020039005a
:100450000882cf000441b000694252000e00320011
:1004600008003b0082817100610164008904d100b1
:100470000884d3008b05e8000442e800f9ff3a0045
:10048000050037000804440089844c008b05e9000e
:100490000442e900fbff3a00fa0007000af0a70057
:1004a00001f0a0004f05be004f04be000000060092
:1004b00003f0a200889fbe008a9fbe008c1f7800b8
:1004c000160107001d0133006450e1004f003200a7
:1004d0006420e1005200320003826c0007003b0000
:1004e0000905d0000306d000820f54000c065d0001
:1004f000020039000200320089017800030678000a
:100500008582550004003d000003fd008103fd00cd
:100510008502ea008b854200840f720002003b00d6
:1005200060001000e08018006011b8000005eb00ca
:100530007a28e1000a00390006007800c75ddd0076
:10054000f707b200878075002d00370082817100a7
:100550000a017800610560008180d1000080d3002d
:100560008502e900f9ff3b0006044000878448004b
:1005700002003b0060041400e0841c000988a30012
:10058000070032008a81710082817100610164007c
:100590008904d1000884d3008b05e80017003700d8
:1005a0000978a30013003a000b00e00013003400a8
:1005b0008b05e9000804440089844c000a44740057
:1005c0000978a3000d003a000b00e000070034009a
:1005d0008b05e9000804440089844c0001003a00be
:1005e0000b0020000978a300f7ff32000001eb00a8
:1005f00002003700828171000a017800a100070023
:100600000cf0a70001f0a000d50037006420e10045
:1006100002003a00838f6c00d50033000801be0051
:100620000200be00ce003700f4ff2f00d3003700d9
:1006300014002000d100370004002000cf00370054
:10064000889fbe008a9fbe008c1f7800b300070001
:10065000ba00330003866c006450e1002e003200c3
:100660006420e100330032006150e1002f003200cd
:100670006120e1003100320085855500eb07b000b4
:100680000900200008042000050037000804440089
:1006900089844c000a0031000603430087834b0025
:1006a0000001530081815b00f8ff33000203be00ac
:1006b0000800a0000804440089844c00f6ff3900bb
:1006c000c639dd00830173000100320013002000f1
:1006d0008904d1000884d3000998a30005003200e2
:1006e0000800a7000300a0008904d1000884d300fb
:1006f0008b05e8008904d1000884d3000001eb00d9
:100700000281d2005f00070001f0a1000cf0a700f9
:1007100001f0a000920037006420e1009400320054
:100720000801be000200be00f7ff37006120e100b3
:100730008f0032006000b800f3ff37000000200097
:1007400001f82700f0ff3700889fbe008a9fbe0097
:100750008c1f7800710007007800330003866c005e
:100760006450e100240032006420e10027003200e0
:100770006150e100220032006120e10021003200de
:100780008b854200eb07b1000134b800003ab80095
:100790000804420089844a00013ab8000030b800d9
:1007a0008880400009014a00040033000000400036
:1007b00081804800020149008b05e900c909dd007c
:1007c000830170000100320013002000c814de0015
:1007d0004814dd004709de001200b200c808de0040
:1007e000088470002700070001f0a1000cf0a700aa
:1007f00001f0a0005a0037006120e1005c003200e7
:100800000801be000200be00f7ff37006150e100a2
:10081000fcff3a00560037000001be0072000700de
:100820000470a70003f0a10003f8a30013003a002e
:100830006509b10010003200090035006928e100a7
:100840000200350001002800000005000000400003
:10085000818048008502e900fcff3a0000000600a4
:10086000f88f4200050035008100d1000080d300e0
:100870008502e800fcff3a00000006008000eb0063
:100880000000050081002000618055000b003d0044
:100890000b00200061fe2f000100e1001d0034006c
:1008a00082817100610164008904d1000884d30051
:1008b0000000e800faff3a007100200061006400c7
:1008c000030070000200600009003200610444006f
:1008d000e0844c000988a500050032008b05e80083
:1008e0006808e10002003a008904d1000884d300be
:1008f000f20f20000258e10005003d00c75ddd0059
:10090000f907b20089807500080078000000060031
:100910000bf827008b007800000005000004be00e3
:10092000310007000003be000405be000200be0047
:100930002d000700844f7500000006000200be0075
:100940006450e100050036006420e100020036003a
:100950000968a30001003a000800be000160a00081
:100960004f0678004f05be004f04be000000060091
:10097000f0ff2f00f1ff2700f9ff3700889fbe002e
:100980008a9fbe00841f7800e4ff07004f007800b4
:1009900011003300f0ff2f00838f6c0006003b0036
:1009a000040565000a00a7000800370009f0a6004a
:1009b0001000200008003700820f5400838f5c0075
:1009c000030039001000200001003e00000020005c
:1009d00009f0a7000000ea004f05be004f04be006a
:1009e0000000e00000000600c70ade00f107b200c8
:1009f000f50fb20008003200e1cf420002003200e1
:100a00000170a00024000500810f70000100320079
:100a10000408050044000500810f700002003a0040
:100a2000140005008502e9000000400081c0480074
:100a3000fcff3b000170a00024000500889fbe0061
:100a40000004be00060037000804e8000000fb00b8
:100a50008900780012000700e10f40000400320016
:100a6000184078000004e000f7ff3a000000eb00b7
:100a70004f04be0000000600881f7800c18b2000d4
:100a8000eeff070000047800c18b2000a0002000ca
:100a900003000700080078004f04780000000600fb
:100aa000889fbe000001780001047800b10090002a
:100ab0000118a3003d0032000198a30003003a0092
:100ac000180090000000e00038003a000190a000fb
:100ad0003104980082047800f90fb20018009000e9
:100ae0000000e00002003a0028009000000c7800ae
:100af000ea8f540006003a00380090000078a30006
:100b000003003a0088007800d0002000e4ff0700ce
:100b10009800900058009000808f50000b00320029
:100b20000100e800100498001800780009587800c7
:100b3000000c780011c0b300808d200001487800bf
:100b4000ea8f540006003200190037008800780050
:100b5000094078001900070080047800140037006d
:100b6000380090000088a3001100320018019000a6
:100b7000a800900048009000ebfd0700980090004e
:100b8000810f500004003200380090000003b300d1
:100b9000300498008084eb000000eb001004980003
:100ba00028009000000c7800010037008084eb00e2
:100bb000090078004f04be00000006000200fa00a1
:100bc000889fbe00a0ff9f0001047800b100900044
:100bd000810478000904b200020032000000fb002a
:100be000360037000118a30005003a000103b300e6
:100bf00031049800190498000080eb002f003700a2
:100c0000580090000000e00006003a004800900004
:100c100012002000e6805700c3fd07001904980069
:100c200024003700280090000000e00008003a008f
:100c3000408d200020049800000c78002000200047
:100c400050049800100498000130a000310498006e
:100c500018019000a800900048009000b2fd070025
:100c600028009000000c78000080eb001004980031
:100c700018007800aff8970001587800000c780051
:100c80002ff89700ea4f50000a003a003800900011
:100c90000088a3000700320018019000a80090000f
:100ca00048009000a0fd070019049800a8009000db
:100cb000010c7800aff897000100fb004f04be0064
:080cc0000080fa0000000600ac
:020000040000fa
:0200000401f009
:04000000f6bf000047
:020000040000fa
:0200000401f009
:04000400ff7f00007a
:020000040000fa
:1000080090010000900100009001000090010000a4
:100018009001000090010000900100009001000094
:100028009001000090010000900100005e070000b0
:1000380090010000900100005a0a00006e0a0000ba
:1000480090010000820a0000900100009001000069
:100058009001000090010000900100009001000054
:100068009001000090010000900100009001000044
:100078009001000090010000900100009001000034
:100088009001000090010000900100009001000024
:100098009001000090010000900100009001000014
:1000a8009001000090010000900100009001000004
:1000b80090010000900100009001000090010000f4
:1000c80090010000900100009001000090010000e4
:1000d80090010000900100009001000090010000d4
:1000e80090010000900100009001000090010000c4
:0800f8009001000090010000de
:020000040000fa
:1001080090010000900100009001000090010000a3
:100118009001000090010000900100009001000093
:100128009001000090010000900100005e070000af
:1001380090010000900100005a0a00006e0a0000b9
:1001480090010000820a0000900100009001000068
:100158009001000090010000900100009001000053
:100168009001000090010000900100009001000043
:100178009001000090010000900100009001000033
:100188009001000090010000900100009001000023
:100198009001000090010000900100009001000013
:1001a8009001000090010000900100009001000003
:1001b80090010000900100009001000090010000f3
:1001c80090010000900100009001000090010000e3
:1001d80090010000900100009001000090010000d3
:1001e80090010000900100009001000090010000c3
:0801f8009001000090010000dd
:020000040000fa
:100cc800526f0000626f00007472000061660000dd
:100cd80066690000632000003230000031320000f5
:100ce8002c20000041320000442000007465000000
:080cf8007374000020000000ed
:020000040000fa
:100d00000000fa0042c0bf007f40600001c2b30093
:100d10000140700042e0b7004460a8000000eb0012
:100d2000000488000000eb00100488000000eb00c5
:100d30000008880000032000100888000003280035
:100d4000200888005109200091407800f0c8b300c5
:100d500000c0600001c2b3000140700095e0b70020
:100d60008c60a8008460a90000002800800888002a
:100d70000000eb0030088800f03f20006008880089
:100d8000710920009140780080cfb30000c060005e
:100d90000014a00097e0b7008cc0a80084c0a90090
:100da00000012800900888000000eb00500888002f
:100db000f07f2700700888007109200091407800ba
:100dc000f0c8b30000c0600001c3b3000140700070
:100dd00097e0b7008ce0a80084e0a900800028001c
:100de000000e88000000eb00100e8800e07f240059
:100df000200e88000000eb00300e8800100020005c
:100e0000400e88000000eb00500e880010102000fb
:100e1000a00e88000000eb00200c8800600020007d
:100e2000800c8800d109200091407800f0c8b30000
:100e300000c0600001c2b300014070009de0b70037
:100e40000000eb00700c88008e60a8008660a9008e
:100e50000080eb00401588000000eb003010880097
:100e6000c01f2000c0168800d0ad2000b00e880042
:100e7000d202a900d242a900cda2a900cdc2a800e9
:100e8000de82a800dea2a900dec2a900de62a900ff
:100e9000de42a800de02a900de22a800c642a800a9
:100ea000d822a90010002000704088001000200007
:100eb000600c88000080fa00000006003600f80090
:100ec000809fbe00829fbe00849fbe00869fbe00a2
:100ed000881f78003400f80000002000a00188007e
:100ee0002400fa0004c8bf00e14f500004003a009b
:100ef00040662800e0fe07000040eb0004e8b70071
:100f000004c8bf000004e00004003a00b501070077
:100f10001603070020c0b30004e8b70004c8bf00f0
:100f2000e24f500001003a00cb01070071448000fd
:100f3000f01f2000808f500002003a000000eb00fc
:100f40007044880000c8bf00e74f500002003a001c
:100f50000040eb0000e8b7006000b80020458800c2
:100f6000314588006000b800404588005145880040
:100f70000000eb00b0408800984080006140b9005c
:100f800020fd070000179800111798000800e000e6
:100f900007003d0002002000037824000e1090009e
:100fa0009e10900043fd070000179800111798004d
:100fb00032418000434180000e1090009e1090004e
:100fc00099fd07000000e00001003c000e00370022
:100fd00020458000314580000200200003112400dc
:100fe00034fd0700204588003145880040458000d9
:100ff000514580000200200003f823002dfd07006a
:101000004045880051458800984080006140b90003
:10101000fcfc0700600f9800710f98000800e000ca
:1010200007003d0002002000037824006e089000b5
:10103000fe0890001ffd0700600f9800710f9800d8
:1010400052418000634180006e089000fe089000cd
:1010500075fd07000000e00001003c000e003700b5
:10106000204580003145800002002000030c240050
:1010700010fd07002045880031458800404580006c
:10108000514580000200200003f8230009fd0700fd
:101090004045880051458800984080006140b90073
:1010a000d8fc0700400f9800510f98000800e0009e
:1010b00007003d0002002000037824004e08900045
:1010c000de089000fbfc0700400f9800510f9800cd
:1010d00072418000834180004e089000de0890003d
:1010e00051fd07000000e00001003c000e00370049
:1010f00020458000314580000200200003042400c8
:10110000ecfc070020458800314588004045800000
:10111000514580000200200003f82300e5fc070091
:101120004045880051458800984080006140b900e2
:10113000b4fc0700200f9800310f98000800e00071
:1011400007003d0002002000037824002e089000d4
:10115000be089000d7fc0700200f9800310f9800c0
:10116000b2418000c34180002e089000be0890006c
:101170002dfd07000000e00001003c000e003700dc
:101180002045800031458000020020000304240037
:10119000c7fc070020458800314588004045800095
:1011a000514580000200200003f82300c1fc070025
:1011b0004045880051458800984080006140b90052
:1011c00090fc0700000f9800110f98000800e00045
:1011d00007003d0002002000037824000e08900064
:1011e0009e089000b3fc0700000f9800110f9800b4
:1011f000d2418000e34180000e0890009e089000dc
:1012000009fd07000000e00001003c000e0037006f
:10121000204580003145800002002000030c24009e
:10122000a3fc070020458800314588004045800028
:10123000514580000200200003f823009dfc0700b8
:101240004045880051458800984080006140b900c1
:101250006cfc070060079800710798000800e00028
:1012600007003d0002002000037824006e0090007b
:10127000fe0090008ffc070060079800710798003f
:10128000f2418000034280006e009000fe0090005a
:10129000e5fc07000000e00001003c000e00370004
:1012a0002045800031458000020020000311240009
:1012b0007ffc0700204588003145880040458000bc
:1012c000514580000200200003f8230079fc07004c
:1012d0004045880051458800984080006140b90031
:1012e00048fc070040079800510798000800e000fc
:1012f00007003d0002002000037824004e0090000b
:10130000de0090006bfc0700400798005107980032
:1013100092418000a34180004e009000de009000ca
:10132000c1fc07000000e00001003c00070037009e
:1013300040458000514580000200200003f8230052
:101340005cfc07004045880051458800404580000e
:10135000514580000200200003f82300b4fc070080
:101360000000e000010032001800370098408000c3
:101370006140b90023fc070020079800310798005e
:101380000800e00007003d00020020000378240070
:101390002e009000be00900046fc07002007980039
:1013a0003107980032418000434180002e009000b8
:1013b000be0090009cfc07000000e00001003c0023
:1013c00002003700401f2000b040880040458000e8
:1013d000514580000200200003f8230094fc070020
:1013e0000000e00001003200140037009840800047
:1013f0006140b90003fc0700008fbe000800e00058
:1014000005003d0002002000037824001e00be00fd
:1014100028fc0700008fbe00f241800003428000dc
:101420001e00be0080fc07000000e00001003c0040
:1014300002003700c0e02f00b0408800514080001b
:10144000f03f2000808f500002003600f03f200067
:101450005040880050408000600c88007040800040
:101460006140600061416000212d200091407800c2
:10147000e0cfb30000c0600002407000d2e2b700cd
:10148000704480000000e800704488008460a90077
:101490000080fa003400f9004f0478004f03be00ca
:1014a0004f02be004f01be004f00be003600f900e3
:1014b000004006003400f800881f78000800200073
:1014c000a80188004f0478000000fa0084c0a90039
:1014d0000080fa003400f900004006003400f800f3
:1014e000881f780008002000a80188004f047800b9
:1014f0000000fa0084e0a9000080fa003400f9003e
:1015000000400600809fbe00821f78003400f80073
:1015100000002000a00188000000fa0000c8bf0001
:101520000004e00018003a000040eb0001e8b700ba
:101530001000370085c0bf00624060000004e0007a
:10154000fcff320010002000e040880001c8bf000e
:101550000080fb009210800080004000608420002a
:10156000008040000208780001c8bf000040e80089
:1015700001e8b70001c8bf000004e000edff320041
:1015800070c0b30000e8b7008520a9000080fa0011
:101590003400f9004f0178004f00be000040060003
:1015a0000000fa0000002800b0108800004c28005d
:1015b000c010880070002000f0108800010a200090
:1015c0009140780080cfb30000c060000014a000fc
:1015d000a0e0b7008f00a8008700a9000080fa00f3
:1015e000000006000000fa0000402800601088009b
:1015f000004028007010880070002000a0108800b3
:101600008109200091407800f0c8b30000c060005c
:1016100001c3b3000140700098e0b7008d20a8001e
:101620008520a9000080fa00000006000200fa00f0
:10163000004f780087c0bf00624060000004e000f7
:10164000fcff32001e00fb00d01088008720a9009c
:101650000080fa00000006003000fa00881f7800c1
:101660000000eb0030408800660037003032200078
:10167000101188002342a900e002a9008001200087
:101680002011880085c0bf00614060000004e000b8
:10169000fcff320020118000604488008500a90012
:1016a000e002a8000000eb00404088000400370082
:1016b00000000000404080000000e800404088003a
:1016c00040408000ea0f5000f9ff36003032200021
:1016d000101188002342a800e002a90000a0260003
:1016e0002011880085c0bf00614060000004e00058
:1016f000fcff320020118000604488008500a900b2
:10170000e002a8000000eb00404088000400370021
:1017100000000000404080000000e80040408800d9
:1017200040408000ea0f5000f9ff360030322000c0
:10173000101188002342a900e002a9003140800076
:101740006086200000804000104078000080fb0090
:101750002011880085c0bf00614060000004e000e7
:10176000fcff320020118000604488008500a90041
:10177000e002a8000000eb004040880004003700b1
:1017800000000000404080000000e8004040880069
:1017900040408000ea0f5000f9ff36003032200050
:1017a000101188002342a8002362a800e002a900cb
:1017b0000000eb002011880085c0bf006140600080
:1017c0000004e000fcff3200304080002211800065
:1017d0008000400020872000008040000208780040
:1017e0008500a900e002a800000000000000000041
:1017f0000000000000000000304080000000e80011
:101800003040880030408000eb0f500097ff3600da
:10181000984380006140b900fafa07006017980009
:10182000711798000800e00007003d00020020004a
:10183000037824006e109000fe1090001dfb07003e
:1018400060179800711798006e109000fe109000bd
:101850003041880041418800a84380006140b900c0
:10186000e8fa070040179800511798000800e000b8
:1018700007003d0002002000037824004e10900075
:10188000de1090000bfb07004017980051179800de
:101890004e109000de109000504188006141880099
:1018a000b84380006140b900d6fa070020179800bd
:1018b000311798000800e00007003d0002002000fa
:1018c000037824002e109000be109000f9fa070053
:1018d00020179800311798002e109000be1090002d
:1018e0007041880081418800c84380006140b90090
:1018f000c4fa070000179800111798000800e000cc
:1019000007003d0002002000037824000e10900024
:101910009e109000e7fa0700001798001117980032
:101920000e1090009e10900090418800a141880008
:10193000d84380006140b900b2fa0700600f9800f8
:10194000710f98000800e00007003d000200200031
:10195000037824006e089000fe089000d5fa070076
:10196000600f9800710f98006e089000fe089000bc
:10197000b0418800c1418800e84380006140b9005f
:10198000a0fa0700400f9800510f98000800e000ef
:1019900007003d0002002000037824004e0890005c
:1019a000de089000c3fa0700400f9800510f98001e
:1019b0004e089000de089000d0418800e141880088
:1019c000f84380006140b9008efa0700200f9800ac
:1019d000310f98000800e00007003d0002002000e1
:1019e000037824002e089000be089000b1fa07008a
:1019f000200f9800310f98002e089000be0890002c
:101a0000f041880001428800084480006140b9002c
:101a10007cfa0700000f9800110f98000800e00002
:101a200007003d0002002000037824000e0890000b
:101a30009e0890009ffa0700000f9800110f980071
:101a40000e0890009e0890001042880021428800f5
:101a5000184480006140b9006afa070060079800e6
:101a6000710798000800e00007003d000200200018
:101a7000037824006e009000fe0090008dfa0700ad
:101a800060079800710798006e009000fe009000bb
:101a9000a0448800b1448800284480006140b90017
:101aa00058fa070040079800510798000800e00026
:101ab00007003d0002002000037824004e00900043
:101ac000de0090007bfa070040079800510798005d
:101ad0004e009000de009000c0448800d144880091
:101ae000384480006140b90046fa0700200798009a
:101af000310798000800e00007003d0002002000c8
:101b0000037824002e009000be00900069fa0700c0
:101b100020079800310798002e009000be0090002a
:101b2000e0448800f1448800484480006140b900e6
:101b300034fa0700008fbe000800e00005003d00f9
:101b400002002000037824001e00be0059fa07009e
:101b5000008fbe001e00be000045880011458800b1
:101b60004f0478000080fa00000006000000fa0030
:101b70000000280000118800303220001011880079
:101b80008500a9008d00a8008109200091407800ff
:101b900080cfb30000c060000014a00098e0b70040
:101ba000e002a900000120002011880085c0bf00cc
:101bb000614060000004e000fcff32008500a900e5
:101bc000e002a80000002800001188003032200048
:101bd000101188002342a8008500a9008d00a800ec
:101be000810920009140780080cfb30000c06000e0
:101bf0000014a00098e0b700e002a90000a02600b1
:101c00002011880085c0bf00614060000004e00032
:101c1000fcff32008500a900e002a80000002800b7
:101c20000011880030322000101188002342a900e2
:101c30008500a9008d00a80081092000914078004e
:101c400080cfb30000c060000014a00098e0b7008f
:101c5000e002a900000220002011880085c0bf001a
:101c6000614060000004e000fcff32008500a90034
:101c7000e002a80000002800001188003032200097
:101c8000101188008500a9008d00a800810920009e
:101c90009140780080cfb30000c060000014a00025
:101ca00098e0b700e002a900800120002011880020
:101cb00085c0bf00614060000004e000fcff32000e
:101cc0008500a900e002a80000002800001188009b
:101cd00030322000101188008500a9008d00a80076
:101ce000810920009140780080cfb30000c06000df
:101cf0000014a00098e0b700e002a900e00d200069
:101d00002011880085c0bf00614060000004e00031
:101d1000fcff320020118000604488008500a9008b
:101d2000e002a8000000eb004040880004003700fb
:101d300000000000404080000000e80040408800b3
:101d400041408000f0072000808f5000f8ff3600ef
:101d50000000280000118800303220001011880097
:101d60002342a800e002a9002362a800e062a900c3
:101d70002422ef0085c0bf00614060000004e00045
:101d8000fcff320020118000604488008500a9001b
:101d9000e002a8008500a9008d00a80081092000ac
:101da0009140780080cfb30000c060000014a00014
:101db00098e0b7000080fa00000006000600fa0074
:101dc000881f780040458000514580006011b800b0
:101dd00019fa07000000e00001003a001100370086
:101de00020458000314580004245800053458000f9
:101df00013fa070002002800b343240052fa070038
:101e000002002000031124000dfa070002002a003e
:101e100053522400a7f907007ffa07002007980013
:101e20000e003700d84080006140b90075f9070006
:101e3000008fbe000800e00005003d000200200009
:101e4000037824001e00be009af90700008fbe0030
:101e50001e00be0070fa0700200798002e009000b8
:101e6000c0408800c0408000d0408800c040800052
:101e7000b00e88004f0478000080fa0000000600d1
:101e80000000fa0020002000d04688009cfb0700dc
:101e9000c3fd07000000eb00804088000000370011
:101ea000804080000000e0000d003a00c3ff070002
:101eb0000032200050408800a0448000b1448000df
:101ec00002002800b34b2400d7f907000000e0000f
:101ed00001003c0002003700200020008040880004
:101ee00080408000e20f500022003a00e02e2000e7
:101ef00050408800c0d02000b00e88000d00370090
:101f0000e08120003002be002003be00f0ff2f0061
:101f1000f1ff2f000001be00040040008580480052
:101f20000601490087814900e4812000009abe0033
:101f30000292be00e08120005001be004000be00c1
:101f4000e00f5000e08f5800e00f5900e08f59007b
:101f5000ebff3a00e081200004d42000350020008f
:101f60006033b8000498be000690be003000200028
:101f70008040880080408000e30f50000d003a0050
:101f80008eff07000032200050408800a0448000ef
:101f9000b144800002002800b34b2400a2f90700de
:101fa0000000e00001003c0002003700400020007b
:101fb0008040880080408000e40f500022003a00fa
:101fc000807a2000b00e8800e02e2000504088006b
:101fd0000d003700e08120003002be002003be006b
:101fe000f0ff2f00f1ff2f000001be0004004000b1
:101ff000858048000601490087814900e48120006e
:10200000009abe000292be00e08120005001be0096
:102010004000be00e00f5000e08f5800e00f590074
:10202000e08f5900ebff3a00e081200004d420004b
:10203000350020006033b8000498be000690be0052
:10204000500020008040880080408000e50f500054
:1020500093ff3a00203520005040880057ff0700ca
:042060008fff3700b7
:020000040000fa
:10206400000800008a0000000200000000000100d7
:1020740001010000000000000000020056d301002e
:10208400000000004a017000170000005a0a5a00bc
:102094000a000000400d03000000000000000000e2
:1020a400000000000000000000000000000000002c
:1020b400000000000000000000000000000000001c
:1020c400000000000000000000000000000000000c
:1020d40000000000000000000000000000000000fc
:1020e40000000000000000000000000000000000ec
:1020f40000000000868e96009ea6ae00b6bec60006
:10210400ced6de0000000000000000000000000049
:1021140000000000000000000000000000000000bb
:10212400000000008a0800002400000000000000f5
:10213400da080000020000000200000001000000b4
:10214400ae0800002600000002000000b008d6001f
:1021540008000000d6080900000000000200d400b6
:1021640008000000d408060002010000000000007e
:102174000000000000000600020200000000000051
:10218400d408000006000000000000000000000069
:00000001FF
