:020000040000fa
:080000000001040000000000f3
:020000040000fa
:10020000af9920000eff20000e01880000000000c2
:100210000c000700409121000100200011000700a0
:10022000000020000000e000020032000000020098
:10023000000000002e180200000000000040da005c
:100240000000fe004440a900c00220000000e000c1
:100250000300320000002000a00188004440a800f4
:100260000000060091018800800078000000eb008b
:1002700015003700e280400032a0b4009101ba00be
:10028000e280400032a0b4009102ba00e280400057
:1002900032a0b4000002eb00472bde00f507b200ed
:1002a000602ce10004003a000059eb008301e900f2
:1002b000fdff3e00040037006128e100010032002c
:1002c0000082eb00040007001101ba000200e00008
:1002d000e8ff3a00000006003159ba008301e90046
:1002e0000c0032002159ba008301e90008003200f5
:1002f0000400e00003003a00e280400032a0b400b5
:10030000f5ff370011d9ba008301e900faff3a007e
:100310008100e800e180400032a0b4000000060047
:100320000040da000000fe000a00fa0080017800b8
:10033000e20f500028003e00c04c8000e10f50004a
:1003400008003200e02120000000e000050032003b
:100350006421200085212000a62120008001780052
:1003600004003700c4202000e520200006212000e2
:1003700043212000144090000004e00004003500f8
:100380008009eb00144090000074a0001042980017
:10039000154090000028a30003003a00154090008b
:1003a0000024a000904298008001eb000700370075
:1003b000154090000008a300fdff320063c07800e4
:1003c0000000fb00000b78008301e800828f5100e1
:1003d000f7ff3a000800370030002000b0bf9f0050
:1003e000c3bf9f00d1bf9f00e2bf9f006a8057003c
:1003f00000c0da006fb99700020078000080fa00b0
:1004000000000600f4ff2f0024013700889fbe0083
:100410008a9fbe00010578000100e000040035005d
:1004200008003c000000e00020003200050037001a
:1004300060001000e080180002003b0001f02c007a
:100440001a0037000004be006011b8006b092000dc
:100450000982cf00020039000882cf000441b000b9
:10046000694252000e00320008003b008281710098
:10047000610164008904d1000884d3008b05e80081
:100480000442e800f9ff3a00050037000804440080
:1004900089844c008b05e9000442e900fbff3a0027
:1004a000190107000af0a70001f0a0004f05be00e7
:1004b0004f04be000000060003f0a200889fbe00ab
:1004c0008a9fbe008c1f7800350107003c01330075
:1004d0006450e1004f0032006420e100520032001d
:1004e00003826c0007003b000905d0000306d00022
:1004f000820f54000c065d00020039000200320039
:1005000089017800030678008582550004003d00cb
:100510000003fd008103fd008502ea008b85420097
:10052000840f720002003b0060001000e0801800a1
:100530006011b8000005eb007a28e1000a003900dc
:1005400006007800c75ddd00f707b2008780750000
:100550002d003700828171000a017800610560007a
:100560008180d1000080d3008502e900f9ff3b00c3
:10057000060440008784480002003b006004140029
:10058000e0841c000988a300070032008a81710002
:1005900082817100610164008904d1000884d30064
:1005a0008b05e800170037000978a30013003a0014
:1005b0000b00e000130034008b05e9000804440040
:1005c00089844c000a4474000978a3000d003a00a5
:1005d0000b00e000070034008b05e900080444002c
:1005e00089844c0001003a000b0020000978a30028
:1005f000f7ff32000001eb0002003700828171003a
:100600000a017800c00007000cf0a70001f0a0006c
:10061000f40037006420e10002003a00838f6c0090
:10062000f40033000801be000200be00ed003700f8
:1006300014002000990037000400200097003700c4
:10064000889fbe008a9fbe008c1f7800d4000700e0
:10065000db00330003866c006450e1002e003200a2
:100660006420e100330032006150e1002f003200cd
:100670006120e1003100320085855500eb07b000b4
:100680000900200008042000050037000804440089
:1006900089844c000a0031000603430087834b0025
:1006a0000001530081815b00f8ff33000203be00ac
:1006b0000800a0000804440089844c00f6ff3900bb
:1006c000c639dd00830173000100320013002000f1
:1006d0008904d1000884d3000998a30005003200e2
:1006e0000800a7000300a0008904d1000884d300fb
:1006f0008b05e8008904d1000884d3000001eb00d9
:100700000281d2008000070001f0a1000cf0a700d8
:1007100001f0a000b30037006420e100b500320012
:100720000801be000200be00f7ff37006120e100b3
:10073000b00032006000b800f3ff37000000200076
:1007400001f82700f0ff3700889fbe008a9fbe0097
:100750008c1f7800920007009900330003866c001c
:100760006450e100240032006420e10027003200e0
:100770006150e100220032006120e10021003200de
:100780008b854200eb07b1000134b800003ab80095
:100790000804420089844a00013ab8000030b800d9
:1007a0008880400009014a00040033000000400036
:1007b00081804800020149008b05e900c909dd007c
:1007c000830170000100320013002000c814de0015
:1007d0004814dd004709de001200b200c808de0040
:1007e000088470004800070001f0a1000cf0a70089
:1007f00001f0a0007b0037006120e1007d003200a5
:100800000801be000200be00f7ff37006150e100a2
:10081000fcff3a00770037000001be0078000700b7
:100820000470a70003f0a1006509b10016003200b2
:100830000d0035006828e10006003500f0ff2f00ac
:10084000f1ff27000300e00013003b000100280037
:100850000000050000004000818048008502e9009a
:10086000fcff3a0008003700f88f420002003c000d
:100870008000eb00000005008100d1000080d30063
:100880008502e800fcff3a000300e00002003b00a4
:1008900060001000e080180000000600889fbe0085
:1008a0008a9fbe00841f78003d0007004f0078003b
:1008b00011003300f0ff2f00838f6c0006003b0017
:1008c000040565000a00a7000800370009f0a6002b
:1008d0001000200008003700820f5400838f5c0056
:1008e000030039001000200001003e00000020003d
:1008f00009f0a7000000ea004f05be004f04be004b
:100900000000e0000000060081002000618055002a
:100910000b003d000b00200061fe2f000100e100f4
:100920001d00340082817100610164008904d100de
:100930000884d3000000e800faff3a0071002000ac
:1009400061006400030070000200600009003200d2
:1009500061044400e0844c000988a50005003200d1
:100960008b05e8006808e10002003a008904d10024
:100970000884d300f20f20000258e10005003d007a
:10098000c75ddd00f907b2008980750008007800b6
:10099000000006000bf827008b007800000005001f
:1009a0000004be00160007000003be000405be00e0
:1009b0000200be0012000700844f75000000060010
:1009c0000200be006450e100050036006420e10032
:1009d000020036000968a30001003a000800be00ca
:1009e0000160a0004f0678004f05be004f04be0016
:1009f00000000600f0ff2f00f1ff2700f9ff37008d
:100a0000c70ade00f107b200f50fb200080032009d
:100a1000e1cf4200020032000170a0002400050076
:100a2000810f700001003200040805004400050039
:100a3000810f700002003a00140005008502e900f1
:100a40000000400081c04800fcff3b000170a00096
:100a500024000500881f7800000478005001be00c3
:100a60004000be00040040008580480006014900a7
:100a700087814900009cbe000294be000400e10092
:100a80000588e1000690e1000798e10002003100ce
:100a9000680044001008e8004f04780000000600d9
:100aa000f4874700889fbe008a9fbe008c9fbe00cf
:100ab0008e1f78000205be000004be00d4b79f0060
:100ac000e5b79f00f6b79f0087bf9f000000eb00cf
:100ad000c0b79f00b0b79f00a0b79f0090b79f001e
:100ae00080b79f000d042000bfb097004fb0970063
:100af000000140000000e0000f003d004f08de0054
:100b000000007100c0b79f009e00070001003d007b
:100b100012002000a100070001003d00120020008b
:100b2000a6000700b1000700b60007000f00400054
:100b3000c8ff0700220037004f08de0000067100e2
:100b4000ccb79f008f00070001003d00120020007d
:100b50009200070001003d001200200097000700ee
:100b6000a20007000fb297009fb297002fb3970023
:100b7000bfb39700a90007000000520081805a000f
:100b800002015b0083815b0080b79f0091b79f00eb
:100b9000a2b79f00b3b79f000007eb009f000700bc
:100ba0000020e10001a8e10002b0e10003b8e1008b
:100bb000010031001e0020000e005600c0b79f004b
:100bc0004fb297000400e00007003500100020003d
:100bd000010020006011b8000804700089847000d2
:100be0000a0571008b8571008d06e900beff3a0091
:100bf0000400e00003003d00820007000f004000f9
:100c000094ff07004fa897000000e00004003a009e
:100c10000fb497009fb497002fb59700bfb597000a
:100c2000940007004f0778004f06be004f05be0036
:100c30004f04be004f01b10000000600881f78007d
:100c400018002000881f780095ff07008f87e900b3
:100c50004f04780000000600801feb0090ff0700a3
:100c60008f87e90000000600889fbe008a9fbe00b3
:100c70008c1f78006e00070007003d00730007001e
:100c8000e00f5b00e08f5b0007003d0032000700d3
:100c90000006eb00040037003400070002003d00ae
:100ca0002a0007001c00200072000700e3ff070075
:100cb0000203be000002be000c00e0000100320092
:100cc000220007000400be000601be004f067800a7
:100cd0004f05be004f04be0000000600889fbe0006
:100ce0008a9fbe008c1f78005100070005003d0060
:100cf00056000700e00f5b00e08f5b0006003d0040
:100d0000040037001900070003003d006000b80030
:100d10006011b8001000070056000700ceff070062
:100d20000203be000002be000c00e0000100320021
:100d3000060007000400be000601be004f06780052
:100d40004f05be004f04be00000006006000b80062
:100d50006011b8000000370004025000858258007e
:100d60000603590087835900000006000006eb00c7
:100d7000e00f5200e08f5a00e00f5b00e08f5b0055
:100d8000000006000180400090b79f000001eb00ca
:100d90008fb097000100e000000006000200700024
:100da00090b79f000180400080b79f000001eb00da
:100db000ffa897000100e00000000600020070009c
:100dc00080b79f00018040006faa9700cf20de000f
:100dd00001007000f0af9f000402420025000700f0
:100de0004f18de000002720000000600e4af9f0012
:100df0000804440089844c000a054d008b854d0091
:100e0000000006003fb29700cfb297005fb3970093
:100e1000efb3970000fe2f00000006003fb09700e0
:100e2000cfb097005fb19700efb1970000000600c8
:100e30000205be000004be00e00f5000e08f580025
:100e4000e00f5900e08f5900000006006000b80074
:100e50006011b80008045000898458000a05590040
:100e60008b8559001c002000e00f5200e08f5a00d3
:100e7000000006000800be000a01be0000000600d7
:100e8000889fbe000004be00060037000804e8008a
:100e90000000fb008900780019000700e10f400006
:100ea00004003200184078000004e000f7ff3a0028
:100eb0000000eb004f04be0000000600881f780011
:100ec000a1972000eeff070000047800a197200002
:100ed000a00020000a000700080078004f047800f6
:100ee000000006000000fa00cfb8970068815700a4
:100ef000a0972000490007000080fa0000000600cb
:100f0000889fbe000001780001047800b1009000c5
:100f10000118a3003d0032000198a30003003a002d
:100f2000180090000000e00038003a000190a00096
:100f30003104980082047800f90fb2001800900084
:100f40000000e00002003a0028009000000c780049
:100f5000ea8f540006003a00380090000078a300a1
:100f600003003a0088007800d0002000e4ff07006a
:100f70009800900058009000808f50000b003200c5
:100f80000100e80010049800180078000958780063
:100f9000000c780011c0b30060992000014878006f
:100fa000ea8f5400060032001900370088007800ec
:100fb00009407800ce020700800478001400370052
:100fc000380090000088a300110032001801900042
:100fd000a800900048009000d3fc07009800900003
:100fe000810f500004003200380090000003b3006d
:100ff000300498008084eb000000eb00100498009f
:1010000028009000000c7800010037008084eb007d
:10101000090078004f04be0000000600fe8747006c
:10102000889fbe008a9fbe008c9fbe008e1f7800e6
:10103000f0b79f000107780082bf9f000000eb001f
:10104000a0b79f009f0237008006eb0050c2b3009c
:1010500080cf5000090032000100fb00ffb0970074
:10106000a7ff0700e10f400096023200afb09700e3
:101070008100e800a1b79f00920237009e407800ef
:10108000d0c2b30080cf50000c00320007003c00fb
:101090006d40500080cf50000a0032006b4040008d
:1010a00080cf50000e003a000800370000c3b300a4
:1010b00080cf50000a003a00060037000d30a00033
:1010c000050037000d00a000030037000d10a00040
:1010d000010037000d20a0000e07e800e7ff3700f1
:1010e0000d18a300010032000d00a1000d38a3006f
:1010f000010032000d20a1000100fb0002fd2f00c5
:1011000002004000e90f50000e003e000002eb001c
:10111000c4b79f0082017800cfb297006a28b90057
:101120001e01fb000001410003014100c2b79f0006
:101130005e00fb0003004000e90f50000b003e0082
:10114000f5ff37000006eb00ccb79f00a0c2b3004c
:1011500080cf500005003a000fb89700c00078001b
:1011600080bf9f00c1b79f000e07e8000001eb00a1
:10117000b2b79f00e0c2b3009e4f100018003a00c3
:101180000de0a0008e00e80064405000914f100078
:1011900002003200010778000c0037000fba9700f8
:1011a000c402780084bf9f00b5b79f000e87e80097
:1011b0000b0037003fb697006a60b900000041009d
:1011c00003004000b0b79f000e07e8001e01fb00bf
:1011d00003fd2f0003004100e90f5000f5ff36002a
:1011e000be407800e1d79f00c0c6b30080cf50005a
:1011f000220032000f003c006940500080cf5000b8
:101200007700320004003c000104e00031023200ab
:101210006b4050000f00370040c6b30080cf500035
:10122000930032006540400080cf50008b003a00b0
:101230008f00370030c7b30080cf50001a00320053
:1012400007003c006440500080cf50001100320085
:101250000040e80080cf500080003a000f003700c7
:1012600050c7b30080cf5000800032006340400080
:1012700080cf500079003a000900370000002800b4
:101280000d48a30001003a0000012000808676008e
:10129000d3ff37000d60a000750037000d50a0008f
:1012a0000d70a000720037008fb8970041007800e1
:1012b00081bf9f00000478000000e00001003a00b8
:1012c000289420008004eb00010037008104e8002e
:1012d00089007800088044001004e000fbff3a0019
:1012e0003fb197000200e00003003200890f510077
:1012f00001003100820478000002eb00e4af9f009f
:10130000cfb29700898f5200020036000980520048
:10131000e0af9f004368de00e10660001b003a007a
:101320000d06780009003700ffb09700000220008a
:10133000f3fe0700e10f4000030032002fb09700da
:101340000000e800a0b79f000c06e800efa8970097
:10135000810f5600f4ff3a000081eb00e2af9f00de
:101360000a003700880078003100fb000104780093
:10137000ffb09700e2fe0700e10f400003003200db
:101380002fb297000402e800a4b79f000900e9000b
:1013900080047800e10f4000f2ff3a000006eb0005
:1013a0000d00e0000a003a00c6013700ffb09700c8
:1013b00000022000d2fe0700e10f400003003200cf
:1013c000afb297008502e800a5b79f000c06e800c1
:1013d0006fa89700800f5600f4ff3a00b90137005c
:1013e0008fb897004100780081bf9f00cf80de005a
:1013f00001017800820178000205be000004be00f1
:101400000203be000002be004822de00482edd00be
:1014100004027600e4d79f000d48a3000a003200c2
:101420000404e00008003200e14f420006003200f0
:1014300071fd2f0001804700044878001840980093
:101440002900200002003700f0d79f00190020007b
:1014500072fd2f0002844700a1ff370064fd2f00ba
:1014600004844700190020009dff37000d0cb300d5
:101470000d007800000cb20028003a000d00e000da
:1014800005003d008fba97004505be004504be002b
:1014900085bf9f00140037000d48a3000b003200e9
:1014a0000fbe97004c00be008cbf9f004f89de002e
:1014b000cf91de000002be000203780082037800b4
:1014c0000605be000404be00070037008fb8970071
:1014d0004100780081bf9f0000047800cfc4de0087
:1014e000090578008a057800e00f5400e08f5c0061
:1014f000e00f5d00e08f5d001f003d003d00b30088
:101500006000b8006011b8000804500089845800d9
:101510000a0559008b855900170037000d00e000bf
:1015200005003d000fb997004205be004204be0011
:1015300082bf9f00100037000d48a3000700320053
:101540000fba97004400be0084bf9f006011b8002e
:101550000205be000004be00070037008fba9700e6
:101560004500780085bf9f00000478000900200036
:101570000a0020000b0020003fb697000c00e0009e
:1015800007003a00e00f5400e08f5c00e00f5d00c0
:10159000e08f5d0002003a0010002000b0b79f000d
:1015a0008d007800010cb200e1b79f00000420001c
:1015b000808f50003000320003003c000100e0004a
:1015c0000800320040003700000820006fb197008b
:1015d000800f510014003200000c2000800f5100d9
:1015e00039003a0014c0b300258a20000b003700f0
:1015f0000400fb004300dd00050040005001be0078
:101600004000be000040e10001c8e10002d0e1005e
:1016100003d8e1002b0039000442e800f44f5200e7
:10162000f3ff3a00270037000001200001002000ee
:101630006011b80014c0b3000040e10001c8e1002f
:1016400002d0e10003d8e1001e003900450020006f
:101650000000d0008180d2000281d2008381d200bc
:101660008502e900faff3a000442e800f04f520018
:10167000f1ff3a0013003700800020000100200035
:101680006011b80014c0b3000040e10001c8e100df
:1016900002d0e10003d8e1000a0039003c0020003c
:1016a0000000d0008180d2000281d2008381d2006c
:1016b0000c06e900faff3a000442e800f54f520038
:1016c000f1ff3a00e4d79f00efd097000100fb0044
:1016d0003fb19700820f500002003d00e2d79f000b
:1016e000040037003fb29700800f520001003d0018
:1016f000b0b79f00cfb297000500e00004003200b1
:1017000063806600020032008502e900c5b79f00d1
:101710000de8a3000b0032004fb697003fb09700d2
:10172000800f560003003c008000eb00c1b79f0013
:10173000040037004fb197003fb2970004015100f9
:10174000c2b79f00efd297000500fb000006eb0038
:10175000dcaf9f00cfb09700808f500002003400b4
:1017600000805000d0af9f000d28a300370032004a
:10177000e18066000d18a3000c003200d0022000aa
:101780000100e00001003a000080e900ffb097008e
:10179000dbfd0700e10f40000e0032002fb1970083
:1017a0000201e800a2b79f000a0037000100e00034
:1017b00008003200ffb0970000022000d0fd0700b3
:1017c000e10f4000030032002fb297000402e8004e
:1017d000a4b79f00dfaa97000500e0000f003200c9
:1017e0000006eb00ffb0970000032000c4fd0700d7
:1017f000e10f4000030032002fb097000000e80026
:10180000a0b79f000c06e800dfa89700810f5600e4
:10181000f4ff3a000001eb00d2af9f003fb2970007
:10182000c320dd00a08920008080400091b79f0088
:101830004220dd006400500080b79f006320b900a3
:10184000f0af9f006306500084003700dfaa9700c6
:101850000500e00011003200688066000f003a00c9
:1018600000067800ffb0970000022000a4fd0700ea
:10187000e10f4000030032002fb097000000e800a5
:10188000a0b79f000c06e800dfa89700810f560064
:10189000f4ff3a000001eb00d2af9f00e180660048
:1018a0000d18a3000c003200d00220000100e0005f
:1018b00001003a000080e900ffb0970090fd0700aa
:1018c000e10f4000d5ff32002fb297000402e8007c
:1018d000a4b79f00d1ff37000100e000cfff320026
:1018e000ffb097000002200085fd0700e10f4000d7
:1018f000caff3200afb297008502e800a5b79f008b
:10190000c6ff370000042000efb09700808f500022
:101910003100320003003c000100e000080032000a
:101920003e003700000820006fb19700800f510083
:1019300011003200000c2000800f510037003a00e7
:101940001fb097003002be002003be000800be009a
:101950000a01be00b9fc0700a40020000500200019
:101960006033b800bcfc070004c3b300044240006d
:10197000e4d79f002900370095942000d5b79f0039
:101980000d58a30002003a00a0952000d0b79f0098
:1019900014002000050020006033b8008fb09700cd
:1019a0008100e900050033000402d0008582d200e6
:1019b0000683d2008783d200f9ff37000800be00fb
:1019c0000a01be009dfc07006f0060005fb1970038
:1019d000624078001000370014002000050020004d
:1019e0006033b8000c0078000000e9000500330007
:1019f0000402d0008582d2000683d2008783d20001
:101a0000f9ff37000800be000a01be008bfc07008a
:101a1000674060000043b000e0d79f00efd0970020
:101a20000100fb00ffb0970035fd0700e10f40000b
:101a3000030032002fb197000201e800a2b79f0017
:101a40001fb297006802520094b79f008fb29700b0
:101a5000e482520085b79f0063065600d0ff2f0036
:101a60003fb197000090b9007faa970000004200a4
:101a700063005000800f5600a2ff3a000d38a3000b
:101a800010003200dfaa97000500e0000d003400ce
:101a90000006eb00ffb097000002200018fd0700d1
:101aa000e10f4000030032002fb097000000e80073
:101ab000a0b79f000c06e800dfa89700810f560032
:101ac000f4ff3a00be407800e1d79f000104e00037
:101ad0005dfd3a002fb097004f0778004f06be001b
:101ae0004f05be004f04be00ef01b100000006002c
:101af0000200fa00889fbe00a0ff9f00010478004a
:101b0000b1009000810478000904b20002003200a4
:101b10000000fb00360037000118a30005003a0062
:101b20000103b30031049800190498000080eb0011
:101b30002f003700580090000000e00006003a0037
:101b40004800900012002000e6805700f6f90700d8
:101b50001904980024003700280090000000e000dd
:101b600008003a002099200020049800000c78001a
:101b70002000200050049800100498000130a000bc
:101b80003104980018019000a800900048009000cf
:101b9000e5f9070028009000000c78000080eb00b9
:101ba0001004980018007800aff8970001587800ea
:101bb000000c78002ff89700ea4f50000a003a0016
:101bc000380090000088a300070032001801900040
:101bd000a800900048009000d3f90700190498006d
:101be000a8009000010c7800aff897000100fb00fe
:0c1bf0004f04be000080fa000000060058
:020000040000fa
:0200000401f009
:04000000f6bf000047
:020000040000fa
:0200000401f009
:04000400ff7f00007a
:020000040000fa
:1000080090010000900100009001000090010000a4
:100018009001000090010000900100009001000094
:10002800900100009001000090010000080f0000fe
:100038009001000090010000221300003613000018
:10004800900100004a130000900100009001000098
:100058009001000090010000900100009001000054
:100068009001000090010000900100009001000044
:100078009001000090010000900100009001000034
:100088009001000090010000900100009001000024
:100098009001000090010000900100009001000014
:1000a8009001000090010000900100009001000004
:1000b80090010000900100009001000090010000f4
:1000c80090010000900100009001000090010000e4
:1000d80090010000900100009001000090010000d4
:1000e80090010000900100009001000090010000c4
:0800f8009001000090010000de
:020000040000fa
:1001080090010000900100009001000090010000a3
:100118009001000090010000900100009001000093
:10012800900100009001000090010000080f0000fd
:100138009001000090010000221300003613000017
:10014800900100004a130000900100009001000097
:100158009001000090010000900100009001000053
:100168009001000090010000900100009001000043
:100178009001000090010000900100009001000033
:100188009001000090010000900100009001000023
:100198009001000090010000900100009001000013
:1001a8009001000090010000900100009001000003
:1001b80090010000900100009001000090010000f3
:1001c80090010000900100009001000090010000e3
:1001d80090010000900100009001000090010000d3
:1001e80090010000900100009001000090010000c3
:0801f8009001000090010000dd
:020000040000fa
:101bfc00526f0000626f000074720000616600009a
:101c0c0066690000632000003230000031320000b1
:101c1c002c200000413200004420000074650000bc
:101c2c007374000020000000206900007244000062
:101c3c00612000003d2000007b250000647d000039
:081c4c00202000000a00000046
:020000040000fa
:101c54000000fa0042c0bf007f40600001c2b30030
:101c64000140700042e0b7004460a8000000eb00af
:101c7400000488000000eb00100488000000eb0062
:101c840000088800000320001008880000032800d2
:101c9400200888005109200091407800f0c8b30062
:101ca40000c0600001c2b3000140700095e0b700bd
:101cb4008c60a8008460a9000000280080088800c7
:101cc4000000eb0030088800f03f20006008880026
:101cd400710920009140780080cfb30000c06000fb
:101ce4000014a00097e0b7008cc0a80084c0a9002d
:101cf40000012800900888000000eb0050088800cc
:101d0400f07f270070088800710920009140780056
:101d1400f0c8b30000c0600001c3b300014070000c
:101d240097e0b7008ce0a80084e0a90080002800b8
:101d3400000e88000000eb00100e8800e07f2400f5
:101d4400200e88000000eb00300e880010002000f8
:101d5400400e88000000eb00500e88001010200098
:101d6400a00e88000000eb00200c8800600020001a
:101d7400800c8800d109200091407800f0c8b3009d
:101d840000c0600001c2b300014070009de0b700d4
:101d94000000eb00700c88008e60a8008660a9002b
:101da4000080eb00401588000000eb003010880034
:101db400c01f2000c0168800d0ad2000b00e8800df
:101dc400d202a900d242a900cda2a900cdc2a80086
:101dd400de82a800dea2a900dec2a900de62a9009c
:101de400de42a800de02a900de22a800c642a80046
:101df400d822a900100020007040880010002000a4
:101e0400600c88000080fa00000006003600f8002c
:101e1400809fbe00829fbe00849fbe00869fbe003e
:101e2400881f78003400f80000002000a00188001a
:101e34002a00fa0004c8bf00e14f500004003a0031
:101e4400e0df28001cfc07000040eb0004e8b700ba
:101e540004c8bf000004e00004003a004402070084
:101e6400a503070020c0b30004e8b70004c8bf00fe
:101e7400e24f500001003a005a020700514380002b
:101e8400f01f2000808f500008003a0010418000ad
:101e9400801f7800a0e12800801f780010fc070054
:101ea400e48757000000eb0050438800300207002d
:101eb40010418000401798004e109000e20f50002f
:101ec400200032004e119000e20f510007003c0048
:101ed4004e1090000000e0000e0032004e11900001
:101ee400e10f510011003200250037004e10900020
:101ef400e40f5000190032004e119000e40f51001d
:101f0400130035004e109000e60f50001900320007
:101f14001b00370080408000e10f50005a0032005f
:101f24002000200080408800570037008040800057
:101f3400e10f50005400320020002000804088004f
:101f4400510037000000eb00804088004e0037004d
:101f54000000eb00804088004b0037008040800088
:101f6400e10f50004800320020002000804088002b
:101f740045003700300020008040880042003700d0
:101f840080448000914480000041eb007267980017
:101f9400020028009348240019f907000000e0001b
:101fa40001003c000200370010c0b30070679800c5
:101fb4007e6090000004a2000004e00032003200c1
:101fc400a0448000b14480000041eb0062679800a7
:101fd400020028009348240009f907000000e000eb
:101fe40001003c000200370010c0b3006067980095
:101ff4006e6090000004a2000004e00022003200a1
:1020040040448000514480000041eb005267980036
:102014000200280093482400f9f807000000e000bb
:1020240001003c000200370010c0b3005067980064
:102034005e6090000004a2000004e0001200320080
:1020440060448000714480000041eb0042679800c6
:102054000200280093482400e9f807000000e0008b
:1020640001003c000200370010c0b3004067980034
:102074004e6090000004a2000004e0000200320060
:102084000000eb0080408800e04080000000e00099
:1020940005003a0080408000e10f50000200320049
:1020a400200020008040880000c8bf00e74f500097
:1020b40002003a000040eb0000e8b7006000b800fe
:1020c400c0448800d14488006000b800e04488001f
:1020d400f14488000000eb00b04088009840800084
:1020e4006140b900c8f8070000179800111798005c
:1020f4000800e00007003d000200200003782400ef
:102104000e1090009e109000ebf807000017980046
:102114001117980062438000734380000e109000f2
:102124009e109000b6f807000000e00001003c009b
:102134000e003700c0448000d1448000020020001b
:1021440003112400dcf80700c0448800d14488004f
:10215400e0448000f14480000200200003f82300e2
:10216400d5f80700e0448800f144880098408000d6
:102174006140b900a4f80700600f9800710f98003f
:102184000800e00007003d0002002000037824005e
:102194006e089000fe089000c7f80700600f9800d2
:1021a400710f980082438000934380006e08900072
:1021b400fe08900092f807000000e00001003c00d7
:1021c4000e003700c0448000d1448000020020008b
:1021d400030c2400b8f80700c0448800d1448800e8
:1021e400e0448000f14480000200200003f8230052
:1021f400b1f80700e0448800f1448800984080006a
:102204006140b90080f80700400f9800510f980012
:102214000800e00007003d000200200003782400cd
:102224004e089000de089000a3f80700400f9800c5
:10223400510f9800a2438000b34380004e089000e1
:10224400de0890006ef807000000e00001003c008a
:102254000e003700c0448000d144800002002000fa
:102264000304240094f80700c0448800d144880083
:10227400e0448000f14480000200200003f82300c1
:102284008df80700e0448800f144880098408000fd
:102294006140b9005cf80700200f9800310f9800e6
:1022a4000800e00007003d0002002000037824003d
:1022b4002e089000be0890007ff80700200f9800b9
:1022c400310f9800e2438000f34380002e08900011
:1022d400be0890004af807000000e00001003c003e
:1022e4000e003700c0448000d1448000020020006a
:1022f400030424006ff80700c0448800d144880018
:10230400e0448000f14480000200200003f8230030
:1023140069f80700e0448800f14488009840800090
:102324006140b90038f80700000f9800110f9800b9
:102334000800e00007003d000200200003782400ac
:102344000e0890009e0890005bf80700000f9800ac
:10235400110f980002448000134480000e0890007e
:102364009e08900026f807000000e00001003c00f1
:102374000e003700c0448000d144800002002000d9
:10238400030c24004bf80700c0448800d1448800a3
:10239400e0448000f14480000200200003f82300a0
:1023a40045f80700e0448800f14488009840800024
:1023b4006140b90014f8070060079800710798009d
:1023c4000800e00007003d0002002000037824001c
:1023d4006e009000fe00900037f807006007980038
:1023e4007107980022448000334480006e009000fe
:1023f400fe00900002f807000000e00001003c002d
:102404000e003700c0448000d14480000200200048
:102414000311240027f80700c0448800d144880031
:10242400e0448000f14480000200200003f823000f
:1024340021f80700e0448800f144880098408000b7
:102444006140b900f0f70700400798005107980071
:102454000800e00007003d0002002000037824008b
:102464004e009000de00900013f80700400798002b
:1024740051079800c2438000d34380004e0090006f
:10248400de009000def707000000e00001003c00e1
:1024940007003700e0448000f1448000020020007f
:1024a40003f8230004f80700e0448800f14488009e
:1024b400e0448000f144800002002000030e240068
:1024c4005af807000000e000010032000200370063
:1024d4000000eb0080408800e0448000f14480006c
:1024e4000200200003f8230050f807000000e00079
:1024f4000100320018003700984080006140b900a4
:10250400c1f7070020079800310798000800e00091
:1025140007003d0002002000037824002e009000f4
:10252400be009000e4f707002007980031079800e8
:1025340062438000734380002e009000be00900030
:10254400aff707000000e00001003c000200370084
:10255400c0122000b0408800e0448000f1448000b4
:102564000200200003f8230030f807000000e00018
:102574000100320014003700984080006140b90027
:10258400a1f70700008fbe000800e00005003d0031
:1025940002002000037824001e00be00c6f70700d6
:1025a400008fbe0022448000334480001e00be0021
:1025b40093f707000000e00001003c000200370030
:1025c40040ed2f00b040880051408000f03f2000d3
:1025d400808f500002003600f03f200050408800f9
:1025e40050408000600c88007040800061406000b2
:1025f40061416000212d200091407800e0cfb300bc
:1026040000c0600002407000d2e2b7005043800076
:102614000000e800504388008460a9000080fa00ac
:102624003400f9004f0478004f03be004f02be008f
:102634004f01be004f00be003600f9000040060006
:102644003400f800881f780008002000a8018800e2
:102654004f0478000000fa0084c0a9000080fa004a
:102664003400f900004006003400f800881f7800a8
:1026740008002000a80188004f0478000000fa0038
:1026840084e0a9000080fa003400f900004006004c
:10269400809fbe00821f78003400f80000002000f4
:1026a400a00188000000fa0000c8bf000004e00098
:1026b40018003a000040eb0001e8b70010003700b2
:1026c40085c0bf00624060000004e000fcff3200ef
:1026d40010002000e040880001c8bf000080fb001b
:1026e4009210800080004000208220000080400082
:1026f4000208780001c8bf000040e80001e8b70004
:1027040001c8bf000004e000edff320070c0b30058
:1027140000e8b7008520a9000080fa003400f90021
:102724004f0178004f00be00004006000000fa0090
:1027340000002800b0108800004c2800c010880059
:1027440070002000f0108800010a200091407800f9
:1027540080cfb30000c060000014a000a0e0b70068
:102764008f00a8008700a9000080fa00000006007e
:102774000000fa0000402800601088000040280093
:102784007010880070002000a010880081092000cb
:1027940091407800f0c8b30000c0600001c3b300ea
:1027a4000140700098e0b7008d20a8008520a900a2
:1027b4000080fa00000006000200fa00004f7800d2
:1027c40087c0bf00624060000004e000fcff3200ec
:1027d4001e00fb00d01088008720a9000080fa00aa
:1027e400000006003000fa00881f78000000eb00ab
:1027f4003040880066003700303220001011880015
:102804002342a900e002a9008001200020118800d1
:1028140085c0bf00614060000004e000fcff32009e
:1028240020118000404388008500a900e002a80030
:102834000000eb0040408800040037000000000066
:10284400404080000000e800404088004040800094
:10285400ea0f5000f9ff36003032200010118800d2
:102864002342a800e002a90000a02600201188004d
:1028740085c0bf00614060000004e000fcff32003e
:1028840020118000404388008500a900e002a800d0
:102894000000eb0040408800040037000000000006
:1028a400404080000000e800404088004040800034
:1028b400ea0f5000f9ff3600303220001011880072
:1028c4002342a900e002a9003140800020842000b6
:1028d40000804000104078000080fb002011880038
:1028e40085c0bf00614060000004e000fcff3200ce
:1028f40020118000404388008500a900e002a80060
:102904000000eb0040408800040037000000000095
:10291400404080000000e8004040880040408000c3
:10292400ea0f5000f9ff3600303220001011880001
:102934002342a8002362a800e002a9000000eb00e3
:102944002011880085c0bf00614060000004e000e1
:10295400fcff3200304080002211800080004000e3
:10296400e084200000804000020878008500a9006f
:10297400e002a800000000000000000000000000c9
:1029840000000000304080000000e8003040880073
:1029940030408000eb0f500097ff360078428000f3
:1029a4006140b90098f60700601798007117980005
:1029b4000800e00007003d00020020000378240026
:1029c4006e109000fe109000bbf607006017980090
:1029d400711798006e109000fe10900060438800fc
:1029e40071438800884280006140b90086f6070080
:1029f40040179800511798000800e00007003d00b8
:102a040002002000037824004e109000de10900095
:102a1400a9f6070040179800511798004e1090002f
:102a2400de10900080438800914388009842800023
:102a34006140b90074f60700201798003117980018
:102a44000800e00007003d00020020000378240095
:102a54002e109000be10900097f6070020179800e3
:102a6400311798002e109000be109000a0438800eb
:102a7400b1438800a84280006140b90062f60700b3
:102a840000179800111798000800e00007003d00a7
:102a940002002000037824000e1090009e10900085
:102aa40085f6070000179800111798000e10900083
:102ab4009e109000c0438800d1438800b842800033
:102ac4006140b90050f60700600f9800710f98003c
:102ad4000800e00007003d00020020000378240005
:102ae4006e089000fe08900073f60700600f9800cf
:102af400710f98006e089000fe089000e043880073
:102b0400f1438800c84280006140b9003ef60700e6
:102b1400400f9800510f98000800e00007003d00a6
:102b240002002000037824004e089000de08900084
:102b340061f60700400f9800510f98004e0890006e
:102b4400de0890000044880011448800d8428000c8
:102b54006140b9002cf60700200f9800310f98004f
:102b64000800e00007003d00020020000378240074
:102b74002e089000be0890004ff60700200f980022
:102b8400310f98002e089000be0890002044880061
:102b940031448800e84280006140b9001af6070019
:102ba400000f9800110f98000800e00007003d0096
:102bb40002002000037824000e0890009e08900074
:102bc4003df60700000f9800110f98000e089000c2
:102bd4009e089000f040880001418800f84280007f
:102be4006140b90008f60700600798007107980073
:102bf4000800e00007003d000200200003782400e4
:102c04006e009000fe0090002bf60700600798000d
:102c1400710798006e009000fe0090004044880008
:102c240051448800084380006140b900f6f507006c
:102c340040079800510798000800e00007003d0095
:102c440002002000037824004e009000de00900073
:102c540019f6070040079800510798004e009000ad
:102c6400de009000604488007144880018438000ae
:102c74006140b900e4f50700200798003107980087
:102c84000800e00007003d00020020000378240053
:102c94002e009000be00900007f607002007980061
:102ca400310798002e009000be00900080448800f8
:102cb40091448800284380006140b900d2f50700a0
:102cc400008fbe000800e00005003d000200200067
:102cd400037824001e00be00f7f50700008fbe0035
:102ce4001e00be00a0448800b14488004f04780050
:102cf4000080fa00000006000000fa00000028002e
:102d04000011880030322000101188008500a900cd
:102d14008d00a800810920009140780080cfb30085
:102d240000c060000014a00098e0b700e002a90011
:102d3400000120002011880085c0bf0061406000b0
:102d44000004e000fcff32008500a900e002a800b6
:102d54000000280000118800303220001011880083
:102d64002342a8008500a9008d00a8008109200045
:102d74009140780080cfb30000c060000014a00030
:102d840098e0b700e002a90000a026002011880006
:102d940085c0bf00614060000004e000fcff320019
:102da4008500a900e002a8000000280000118800a6
:102db40030322000101188002342a9008500a900a8
:102dc4008d00a800810920009140780080cfb300d5
:102dd40000c060000014a00098e0b700e002a90061
:102de400000220002011880085c0bf0061406000ff
:102df4000004e000fcff32008500a900e002a80006
:102e040000002800001188003032200010118800d2
:102e14008500a9008d00a800810920009140780058
:102e240080cfb30000c060000014a00098e0b70099
:102e3400e002a900800120002011880085c0bf00a5
:102e4400614060000004e000fcff32008500a9003e
:102e5400e002a800000028000011880030322000a1
:102e6400101188008500a9008d00a80081092000a8
:102e74009140780080cfb30000c060000014a0002f
:102e840098e0b700e002a900e00d200020118800be
:102e940085c0bf00614060000004e000fcff320018
:102ea40020118000404388008500a900e002a800aa
:102eb4000000eb00404088000400370000000000e0
:102ec400404080000000e80040408800414080000d
:102ed400f0072000808f5000f8ff36000000280023
:102ee4000011880030322000101188002342a8000d
:102ef400e002a9002362a800e062a9002422ef00f6
:102f040085c0bf00614060000004e000fcff3200a7
:102f140020118000404388008500a900e002a80039
:102f24008500a9008d00a800810920009140780047
:102f340080cfb30000c060000014a00098e0b70088
:102f44000080fa00000006000000fa00e04480005f
:102f5400f14480006011b800b6f507000000e000fd
:102f640001003a0013003700c0448000d1448000bf
:102f7400e2448000f3448000b0f50700020028001a
:102f8400b3432400eff507000200200003112400de
:102f9400aaf507001ff6070080007800b040800003
:102fa40080804000a0a5200000804000c040880030
:102fb40002003700d0408000c0408800c14080003b
:102fc400605a2f000080400080007800b0f62f0087
:102fd400808f500019003500c1408000605a2f00d6
:102fe400008040008000780050092000808f50004d
:102ff40012003c00da22a900c0408000000040001a
:10300400c0408800c1408000d04080000080400063
:10301400c0408800c0408000320020001100090038
:103024000280d800c0408800c0408000b00e8800f4
:10303400c0408000d040880005003700da22a80094
:10304400c0408000b00e8800c0408000d04088009e
:103054000080fa00000006000400fa00881f7800cf
:1030640020002000c04c8800f9fa0700affd0700db
:103074000000eb008040880000003700b2ff07002a
:10308400804480009144800002002800934824007a
:10309400dbf407000000e00016003c00a0448000c0
:1030a400b14480000200280093482400d4f40700af
:1030b4000000e0000f003c004044800051448000c8
:1030c4000200280093482400cdf407000000e0002b
:1030d40008003c0060448000714480000200280025
:1030e40093482400c6f407000000e00001003c00ff
:1030f40002003700100020008040880080408000db
:103104000000e00002003a00003220005040880035
:1031140080408000e10f500002003a000000eb0004
:103124005040880080408000e20f50002c003a009c
:10313400c02b200050408800984080006140b900b6
:10314400b1f40700008fbe000800e00005003d0058
:1031540002002000037824001e00be00d6f40700fd
:10316400008fbe00f2408000034180001e00be00bc
:10317400a3f407000000e00001003c001800370041
:10318400c1408000605a2f00008040008000780019
:10319400b0f62f00808f500011003500c140800030
:1031a400605a2f0000804000800078005009200001
:1031b400808f50000a003c00e0448000f14480000d
:1031c40002002000030e240018f507000000e000b0
:1031d4000100350002003700100020008040880004
:1031e40080408000e30f5000a4ff3a000500370040
:1031f4000000eb0050408800a04080000000e9007f
:10320400a0408800a04080000000e000f8ff3a00e1
:10321400e02e2000504088000000eb008040880031
:0432240096ff3700da
:020000040000fa
:103228000008000066000000020000000000010025
:1032380001010000000000000000020056d3010058
:10324800000000004a017000170000005a0a5a00e6
:103258000a00000000007a0044000000000000009e
:103268000000000000000000000000000000000056
:103278000000000000000000000000000000000046
:1032880000000000868e96009ea6ae00b6bec60060
:10329800ced6de00000000000000000000000000a4
:1032a8000000000000000000000000000000000016
:1032b80000000000660800003c000000000000005c
:1032c8009809000002000000020000000100000050
:1032d8006c09000026000000020000006e0994003e
:1032e8000900000094090900000000000200920093
:1032f8000900000092090600020100000000000019
:1033080000000000000006000202000000000000ab
:10331800920900000600000000000000a20800005a
:10332800a0000000020000000100000000000000f2
:1033380000000a0000000000000000000064000017
:103348000000000000000000e8030000000000008a
:1033580000001000270000000000000000a0860008
:10336800010000000000000040420f0000000000c3
:103378000000800096980000000000000000e100b6
:10338800f50500000000000000ca9a003b0000009c
:1033980000000000e40b5400020000000000e800f8
:1033a80076481700000000000010a500d4e80000cf
:1033b80000000000a0724e00180900000000400044
:1033c8007a10f3005a0000000080c600a47e8d0029
:1033d8000300000000c16f00f28623000000000017
:1033e8008a5d78004563010000006400a7b3b60059
:1033f800e00d000000e889000423c7008a000000ef
:10340800420900002a00000002000000286e750032
:103418006c6c290000303100323334003536370007
:1034280038394100424344004546000030313200fb
:10343800333435003637380039616200636465001b
:08344800660000000000000016
:00000001FF
