:020000040000fa
:080000000001040000000000f3
:020000040000fa
:040008001a050000d5
:020000040000fa
:04000c001a050000d1
:020000040000fa
:040010001a050000cd
:020000040000fa
:040014001a050000c9
:020000040000fa
:040018001a050000c5
:020000040000fa
:04001c001a050000c1
:020000040000fa
:040020001a050000bd
:020000040000fa
:040024001a050000b9
:020000040000fa
:040028001a050000b5
:020000040000fa
:04002c001a050000b1
:020000040000fa
:040030001a050000ad
:020000040000fa
:04003400c8010000ff
:020000040000fa
:040038001a050000a5
:020000040000fa
:04003c001a050000a1
:020000040000fa
:040040009e0400001a
:020000040000fa
:04004400b204000002
:020000040000fa
:040048001a05000095
:020000040000fa
:04004c00c6040000e6
:020000040000fa
:040050001a0500008d
:020000040000fa
:040054001a05000089
:020000040000fa
:040058001a05000085
:020000040000fa
:04005c001a05000081
:020000040000fa
:040060001a0500007d
:020000040000fa
:040064001a05000079
:020000040000fa
:040068001a05000075
:020000040000fa
:04006c001a05000071
:020000040000fa
:040070001a0500006d
:020000040000fa
:040074001a05000069
:020000040000fa
:040078001a05000065
:020000040000fa
:04007c001a05000061
:020000040000fa
:040080001a0500005d
:020000040000fa
:040084001a05000059
:020000040000fa
:040088001a05000055
:020000040000fa
:04008c001a05000051
:020000040000fa
:040090001a0500004d
:020000040000fa
:040094001a05000049
:020000040000fa
:040098001a05000045
:020000040000fa
:04009c001a05000041
:020000040000fa
:0400a0001a0500003d
:020000040000fa
:0400a4001a05000039
:020000040000fa
:0400a8001a05000035
:020000040000fa
:0400ac001a05000031
:020000040000fa
:0400b0001a0500002d
:020000040000fa
:0400b4001a05000029
:020000040000fa
:0400b8001a05000025
:020000040000fa
:0400bc001a05000021
:020000040000fa
:0400c0001a0500001d
:020000040000fa
:0400c4001a05000019
:020000040000fa
:0400c8001a05000015
:020000040000fa
:0400cc001a05000011
:020000040000fa
:0400d0001a0500000d
:020000040000fa
:0400d4001a05000009
:020000040000fa
:0400d8001a05000005
:020000040000fa
:040108001a050000d4
:020000040000fa
:04010c001a050000d0
:020000040000fa
:040110001a050000cc
:020000040000fa
:040114001a050000c8
:020000040000fa
:040118001a050000c4
:020000040000fa
:04011c001a050000c0
:020000040000fa
:040120001a050000bc
:020000040000fa
:040124001a050000b8
:020000040000fa
:040128001a050000b4
:020000040000fa
:04012c001a050000b0
:020000040000fa
:040130001a050000ac
:020000040000fa
:040134001a050000a8
:020000040000fa
:040138001a050000a4
:020000040000fa
:04013c001a050000a0
:020000040000fa
:040140001a0500009c
:020000040000fa
:040144001a05000098
:020000040000fa
:040148001a05000094
:020000040000fa
:04014c001a05000090
:020000040000fa
:040150001a0500008c
:020000040000fa
:040154001a05000088
:020000040000fa
:040158001a05000084
:020000040000fa
:04015c001a05000080
:020000040000fa
:040160001a0500007c
:020000040000fa
:040164001a05000078
:020000040000fa
:040168001a05000074
:020000040000fa
:04016c001a05000070
:020000040000fa
:040170001a0500006c
:020000040000fa
:040174001a05000068
:020000040000fa
:040178001a05000064
:020000040000fa
:04017c001a05000060
:020000040000fa
:040180001a0500005c
:020000040000fa
:040184001a05000058
:020000040000fa
:040188001a05000054
:020000040000fa
:04018c001a05000050
:020000040000fa
:040190001a0500004c
:020000040000fa
:040194001a05000048
:020000040000fa
:040198001a05000044
:020000040000fa
:04019c001a05000040
:020000040000fa
:0401a0001a0500003c
:020000040000fa
:0401a4001a05000038
:020000040000fa
:0401a8001a05000034
:020000040000fa
:0401ac001a05000030
:020000040000fa
:0401b0001a0500002c
:020000040000fa
:0401b4001a05000028
:020000040000fa
:0401b8001a05000024
:020000040000fa
:0401bc001a05000020
:020000040000fa
:0401c0001a0500001c
:020000040000fa
:0401c4001a05000018
:020000040000fa
:0401c8001a05000014
:020000040000fa
:0401cc001a05000010
:020000040000fa
:0401d0001a0500000c
:020000040000fa
:0401d4001a05000008
:020000040000fa
:0401d8001a05000004
:020000040000fa
:100200000fba20000eff20000e0188000000000041
:10021000000020000000e000020032000001200089
:100220002002880014000700460207000000e000da
:1002300003003a00603f2200010020000200370066
:100240000000200001002000810f7000010032003a
:1002500014000700000020000000e000020032004f
:1002600000000200000000002e2302000000000039
:100270000040da000000fe004440a9000008200011
:100280000000e0000300320000002000a001880010
:100290004440a800000006008a1f78008b1f7800e9
:1002a0000000060091018800800478000000eb0047
:1002b0001a003700e284440032a0b4009905ba0065
:1002c000e284440032a0b4009906ba00e2844400fb
:1002d00032a0b4000006eb00476fde00fd07b2005d
:1002e000636ce10003003a00ebff07000000eb0045
:1002f0000a003700606ce10004003a00005deb008a
:100300008b05e900fdff3e00040037006168e10055
:10031000010032000086eb000b00070019c7ba008d
:100320001905ba000e04e00003003a000a00e000dc
:10033000e0ff3a0000000600fe07b2009e018800c0
:100340008a047800f5ff3700395dba008b05e900b3
:100350000c003200295dba008b05e900080032006c
:100360000c00e00003003a00e284440032a0b40034
:10037000f5ff370019ddba008b05e900faff3a00f6
:100380008904e800e184440032a0b40000000600c3
:100390003600f800809fbe00829fbe00849fbe0092
:1003a000869fbe00881f78003400f80000002000ff
:1003b000a00188000000fa0062c9bf00e14f5000b0
:1003c00001003a006269ef0062c9bf000004e0006a
:1003d00004003a00410e07006a0f070020c0b30076
:1003e00062e9b70062c9bf00e24f500001003a0065
:1003f0005a0e070061408000f01f2000808f5000df
:1004000001003a000c28ef00c04080000000e0002e
:1004100001003a000a28ef006000b800f0428800ae
:10042000014388006000b800104388002143880021
:100430001228ef002400370090408000c200dd0049
:1004400000942000008040001002be00f0428000b6
:10045000014380000001be000400be00bb01070094
:10046000f04288000143880090408000c200dd0017
:10047000409a2000008040001002be0090408000a2
:10048000c200dd0000942000008040001000be008b
:100490000001be000400be00c40207000002be004e
:1004a00010438000214380000001be000400be0014
:1004b000a601070010438800214388009040800077
:1004c0000000e8009040880090408000e60f500057
:1004d000d9ff36006000b80090428800a142880031
:1004e0006000b800b0428800c14288000e28ef00ca
:1004f000504b80008000eb00550207000002be0058
:10050000104180002141800018c0b3000001be00ee
:100510000400be002c0207000000e00001003500ce
:100520000044eb000804e0000e003200904280001e
:10053000a142800002002000031124008301070073
:1005400090428800a1428800b0428000c1428000f1
:100550000200200003f823007c010700b04288005d
:10056000c1428800504b80008000eb003802070039
:100570000002be00304180004141800018c0b3003d
:100580000001be000400be000f0207000000e000f2
:10059000010035000044eb000804e0000e003200ca
:1005a00090428000a142800002002000030c240041
:1005b0006601070090428800a1428800b042800096
:1005c000c14280000200200003f823005f01070001
:1005d000b0428800c1428800504b80008000eb0090
:1005e0001b0207000002be005041800061418000f4
:1005f00018c0b3000001be000400be00f2010700f5
:100600000000e000010035000044eb000804e000b9
:100610000e00320090428000a142800002002000c3
:10062000030424004901070090428800a142880089
:10063000b0428000c14280000200200003f8230085
:1006400042010700b0428800c1428800504b800040
:100650008000eb00fe0107000002be009041800018
:10066000a141800018c0b3000001be000400be001c
:10067000d50107000000e000010035000044eb0058
:100680000804e0000e00320090428000a142800089
:1006900002002000030424002b0107009042880080
:1006a000a1428800b0428000c142800002002000c8
:1006b00003f8230025010700b0428800c1428800ea
:1006c000504b80008000eb00e10107000002be00fb
:1006d000b0418000c141800018c0b3000001be00dd
:1006e0000400be00b80107000000e0000100350072
:1006f0000044eb000804e0000e003200904280004d
:10070000a142800002002000030c24000e0107001b
:1007100090428800a1428800b0428000c14280001f
:100720000200200003f8230008010700b0428800ff
:10073000c1428800504b80008000eb00c4010700dc
:100740000002be00d0418000e141800018c0b3002b
:100750000001be000400be009b0107000000e00095
:10076000010035000044eb000804e0000e003200f8
:1007700090428000a142800002002000031124006a
:10078000f100070090428800a1428800b04280003a
:10079000c14280000200200003f82300eb000700a4
:1007a000b0428800c1428800504b80008000eb00be
:1007b000a70107000002be00704180008141800057
:1007c00018c0b3000001be000400be007e01070097
:1007d0000000e000010035000044eb000804e000e8
:1007e00007003200b0428000c142800002002000b9
:1007f00003f82300d5000700b0428800c1428800fa
:10080000b0428000c14280000200200003f82300b3
:100810006d0107000000e00011003a00504b80001d
:100820008000eb008a0107000002be00104180003a
:100830002141800018c0b3000001be000400be00ca
:10084000610107000000e000010035000044eb00fa
:100850000804e00002003200401f200070408800c1
:10086000b0428000c14280000200200003f8230053
:10087000550107000000e00011003a00504b8000d5
:100880008000eb00720107000002be00d041800032
:10089000e141800018c0b3000001be000400be00aa
:1008a000490107000000e000010035000044eb00b2
:1008b0000804e00002003200c0e02f007040880011
:1008c000214b8000f03f2000808f50000200360056
:1008d000f03f2000204b8800204b8000600c8800f7
:1008e000404b800000407800614060000080fb00c9
:1008f0006100600092168000e1ff2f00810061001e
:100900000100700090168800604080000000e80040
:10091000604088008460a9000080fa003400f9007b
:100920004f0478004f03be004f02be004f01be00cf
:100930004f00be003600f900004006003400f80009
:10094000881f780008002000a80188004f04780064
:100950000000fa0084c0a9000080fa003400f90009
:10096000004006003400f800881f780008002000ce
:10097000a80188004f0478000000fa0084e0a90074
:100980000080fa003400f90000400600809fbe009d
:10099000821f78003400f80000002000a0018800c9
:1009a0000000fa0000c8bf000004e0001b003a008d
:1009b0000168ef001400370000000000010037005c
:1009c0000000000021048000002020000080600062
:1009d0000000e000f8ff3200100020008040880096
:1009e00001c8bf000080fb009110800000014000a2
:1009f00080862000000041000108780001c8bf0087
:100a00000040e80001e8b70001c8bf000004e000b2
:100a1000ebff320070c0b30000e8b7008520a900ea
:100a20000080fa003400f9004f0178004f00be004a
:100a3000004006000040da000000fe000a00fa0054
:100a4000e20f500034003e00f05c8000e10f5000e7
:100a500003003200e20f500011003a000c00370092
:100a6000c32020000300e00001003a000040da004b
:100a70000c02e200020035001422ef000de2a80093
:100a80000f42ab000d003a000f42a8000b003700e8
:100a9000632120000300e00001003a000040da007a
:100aa0001602e200020035001e22ef0017e2a80045
:100ab0001942ab0001003a001942a80082017800f7
:100ac0000b0037003102fb00e10f500004003a0038
:100ad0000f22ab00feff3a008410880003003700ad
:100ae0001922ab00feff3a00d41088008301e90010
:100af0000300e000f3ff3a00e10f500003003a006a
:100b00000f02ab00feff32000b0037001902ab00f2
:100b1000feff32000800370033002000b3bf9f0003
:100b2000c0bf9f00d1bf9f00e2bf9f006a805700f7
:100b3000de0707006fb99700020078000080fa0016
:100b4000000006000000050003f0a200889fbe0020
:100b50008a9fbe008c1f7800fc0007000301330051
:100b60006450e1004f0032006420e1005200320086
:100b700003826c0007003b000905d0000306d0008b
:100b8000820f54000c065d000200390002003200a2
:100b900089017800030678008582550004003d0035
:100ba0000003fd008103fd008502ea008b85420001
:100bb000840f720002003b0060001000e08018000b
:100bc0006011b8000005eb007a28e1000a00390046
:100bd00006007800c75ddd00f707b200878075006a
:100be0002d003700828171000a01780061056000e4
:100bf0008180d1000080d3008502e900f9ff3b002d
:100c0000060440008784480002003b006004140092
:100c1000e0841c000988a300070032008a8171006b
:100c200082817100610164008904d1000884d300cd
:100c30008b05e800170037000978a30013003a007d
:100c40000b00e000130034008b05e90008044400a9
:100c500089844c000a4474000978a3000d003a000e
:100c60000b00e000070034008b05e9000804440095
:100c700089844c0001003a000b0020000978a30091
:100c8000f7ff32000001eb000200370082817100a3
:100c90000a017800720007000cf0a70001f0a00024
:100ca000bb0037006420e10002003a00838f6c0033
:100cb000bb0033000801be000200be00b4003700d4
:100cc000889fbe008a9fbe008c1f78009f0007008f
:100cd000a600330003866c006450e1002e00320051
:100ce0006420e100330032006150e1002f00320047
:100cf0006120e1003100320085855500eb07b0002e
:100d00000900200008042000050037000804440002
:100d100089844c000a0031000603430087834b009e
:100d20000001530081815b00f8ff33000203be0025
:100d30000800a0000804440089844c00f6ff390034
:100d4000c639dd008301730001003200130020006a
:100d50008904d1000884d3000998a300050032005b
:100d60000800a7000300a0008904d1000884d30074
:100d70008b05e8008904d1000884d3000001eb0052
:100d80000281d2003600070001f0a1000cf0a7009c
:100d900001f0a0007e0037006420e10080003200f6
:100da0000801be000200be00f7ff37006120e1002d
:100db0007b0032006000b800f3ff37000000200025
:100dc00001f82700f0ff370014002000ab003700c7
:100dd000f4ff2f00a90037000001be004600070005
:100de0000470a70003f0a10003f8a30013003a0069
:100df0006509b10010003200090035006928e100e2
:100e0000020035000100280000000500000040003d
:100e1000818048008502e900fcff3a0000000600de
:100e2000f88f4200050035008100d1000080d3001a
:100e30008502e800fcff3a00000006008000eb009d
:100e4000000005004f89de0082017800a60037000f
:100e50006011b800b400370004002000870037009c
:100e600081002000618055000b003d000b00200038
:100e700061fe2f000100e1001d003400828171003d
:100e8000610164008904d1000884d3000000e800f7
:100e9000faff3a0071002000610064000300700056
:100ea000020060000900320061044400e0844c004c
:100eb0000988a500050032008b05e8006808e100fc
:100ec00002003a008904d1000884d300f20f200008
:100ed0000258e10005003d00c75ddd00f907b200e2
:100ee0008980750008007800000006000bf82700d4
:100ef0008b00780000000500c70ade00f107b20091
:100f0000f50fb20008003200e1cf420002003200cb
:100f10000170a00024000500810f70000100320064
:100f20000408050044000500810f700002003a002b
:100f3000140005008502e9000000400081c048005f
:100f4000fcff3b000170a000240005000004be006f
:100f5000e9ff07000003be000405be000200be005a
:100f6000e5ff0700844f7500000006000200be0088
:100f70006450e100050036006420e1000200360004
:100f80000968a30001003a000800be000160a0004b
:100f90004f0678004f05be004f04be00000006005b
:100fa000f0ff2f00f1ff2700f9ff3700889fbe00f8
:100fb0008a9fbe008c1f7800e4ff0700ebff330020
:100fc00003866c006450e100240032006420e100dc
:100fd000270032006150e100220032006120e10070
:100fe000210032008b854200eb07b1000134b800cc
:100ff000003ab8000804420089844a00013ab80067
:101000000030b8008880400009014a000400330025
:101010000000400081804800020149008b05e90082
:10102000c909dd00830170000100320013002000b7
:10103000c814de004814dd004709de001200b200cb
:10104000c808de000884700085ff070001f0a100d9
:101050000cf0a70001f0a000cdff37006120e100f7
:10106000cfff32000801be000200be00f7ff3700cc
:101070006150e100fcff3a00c9ff3700889fbe00c5
:101080008a9fbe00841f7800b0ff07004f007800e1
:1010900011003300f0ff2f00838f6c0006003b002f
:1010a000040565000a00a7000800370009f0a60043
:1010b0001000200008003700820f5400838f5c006e
:1010c000030039001000200001003e000000200055
:1010d00009f0a7000000ea004f05be004f04be0063
:1010e0000000e00000000600881f7800030478007c
:1010f0000300e00007003d0060001000e0801800e1
:1011000060011900e081190002003b0001f02d0090
:10111000030037000400070008f0a70001f0a0005a
:101120004f04780000000600889fbe008a9fbe0022
:1011300000827000040271000482710026003200f7
:101140000004be000200be006011b8006b09200060
:10115000950220000182cf000a0039000541b1004c
:101160000082cf00070039000541b1000982cf009d
:10117000040039000541b1000882cf0001003900a8
:101180000541b10005425200120032000a003b0046
:1011900082817100610164008100d1000080d30070
:1011a0008984d3000884d3008b05e8000442e8005a
:1011b000f7ff3a00070037000804440089844c0018
:1011c00000004800818048008b05e9000442e900e6
:1011d000f9ff3a0022ff07004f05be004f04be0092
:1011e000000006000000fa0068815700cfb89700a1
:1011f000e0b72000ca0007000080fa0000000600e7
:101200000800fa00889fbe008a9fbe000084fb0091
:10121000d1c6b300814f5000340036004b06200089
:10122000110009000b84d80081057800720040008d
:101230004300dd0009a72000008044006022b800c0
:101240000600200007fe23005001be004000be0043
:10125000b50707000002be000203be0084bf9f0066
:1012600095bf9f00a6bf9f00b7bf9f00aa002000a8
:10127000110009008a85d80080057800e9854500bd
:10128000c35ddd008b8544003b02be002b03be0026
:101290000fb897009fb897002fb99700bfb9970074
:1012a000a10707000002be000203be0084bf9f002a
:1012b00095bf9f00a6bf9f00b7bf9f001100090008
:1012c0000a84d800010478004344dd008884440087
:1012d0003902be002903be000fb897009fb89700df
:1012e0002fb99700bfb997001d003700ea4f500093
:1012f00013003600aa002000110009000a84d8005b
:1013000001057800690440004344dd0009a720007e
:10131000088444006022b8000600200007fe230075
:101320003800be002801be007f0707004355dd00de
:101330008a8444003902be002903be000800370039
:101340004344dd0000a72000080440006022b800ec
:101350000600200007fe23003800be002801be0062
:10136000710707004f05be004f04be000080fa0061
:10137000000006000800fa00889fbe008a9fbe0099
:10138000d1c6b3000004e00023003d000040ea00a5
:101390000004fb00814f50000a0034004206200088
:1013a000110009000204d800a90020001100090062
:1013b0008900d800e9004000c308dd000aa720002a
:1013c00021003700ea4f500010003400a200200036
:1013d000110009000204d8000101780069004000f2
:1013e0004300dd0001a72000008040004311dd0024
:1013f000828040003102be002103be005001be00c9
:101400004000be0048070700380037004344dd00b5
:1014100000a72000320037000004fb00814f50007d
:101420002300340042062000110009000204d80005
:10143000a9002000110009008900d800e90040003f
:10144000c308dd000a9c2000810045003102be0077
:101450002103be008b0920008a8545003b00be00a9
:101460002b01be00300707000002be000203be00d1
:1014700084bf9f0095bf9f00a6bf9f00b7bf9f007e
:10148000110009000904d800010478004344dd007c
:10149000080545003a02be002a03be000fb89700b7
:1014a0009fb897002fb99700bfb99700d5ff3700b5
:1014b000ea4f500008003400a2002000110009008b
:1014c0000204d80001017800690040004300dd00fb
:1014d000019c2000c4ff37004344dd00009c200035
:1014e000080440003800be002801be004f05be00c1
:1014f0004f04be000080fa0000000600d0019000fa
:10150000028151004240a90003003400100178001c
:10151000014978000208e800010078000000060098
:101520006f02b000889fbe008a9fbe008c9fbe00e5
:101530008e1f780000067800b1af9f0092b79f0021
:101540006000b8006011b800d0af9f00e1af9f000d
:10155000f2af9f0083b79f008006eb00c504370001
:10156000bfa897008100e800b1af9f0051c2b3004f
:10157000814f500003003a00bfa897000007eb001e
:1015800011003700bc0090000000fb000168a300c0
:10159000070032000d017800800078000c00780010
:1015a000d6ff07000000e00005003a00b104370054
:1015b0008c007800bb040700e10f4000ad0432004e
:1015c0008d06e800ab043700010178003140780057
:1015d000d3c2b300834f50000c00320007003c0020
:1015e000edc15100834f50000a003200ebc14100b1
:1015f000834f50000d003a000800370003c3b300ca
:10160000834f500009003a00060037000e30a0005a
:10161000edff37000e00a000ebff37000e10a0001a
:10162000e9ff37000e20a000e7ff37000e18a300e7
:10163000010032000e00a1000e38a30001003200ac
:101640000e20a1008000fb000103b100e98f5000d3
:101650000c003e00020078008005eb006a59b900da
:10166000b005fb000b03b100828545000001780046
:101670009000fb000103b100e98f5000f7ff360036
:10168000080037008005eb00a1c2b300814f500075
:1016900004003a009fb19700c305780093b79f00fc
:1016a0000201e800e0c2b300924f100016003a00b9
:1016b0000ee0a00064405000d24f10000300320042
:1016c000020078008001eb00080037009fb297000d
:1016d0004503780095b79f00e6b79f000201e80038
:1016e0000c0037006a19b9008281400000017800bf
:1016f000b000fb000103b100e98f5000f9ff360094
:10170000e3b79f00030037000ec0a0008003eb008a
:10171000e7b79f008201780033407800030178002a
:10172000c1c6b300814f50002b003200b3af9f0001
:1017300014003c00e8c05000814f500024003200eb
:1017400009003c00ecc05000814f50002a003200dc
:10175000ebc04000814f50008c0032000004e000dc
:1017600049043200a200370061c6b300814f500027
:101770001b003200e3c04000814f50009c003a0043
:101780001300370031c7b300814f50001e003200f4
:1017900007003c00e4c05000814f500013003200ad
:1017a0008140e800814f500091003a00120037005c
:1017b00051c7b300814f500092003200e3c0400097
:1017c000814f50008a003a00e0cf9f000c003700a4
:1017d000e0cf9f008d0037000e40a000cdff370006
:1017e000e0cf9f000ea0a00088003700e0cf9f0050
:1017f0000e60a00085003700e0cf9f000e50a000d3
:101800000e70a00081003700e0cf9f009fb09700ce
:101810004100780091b79f00000478000000e000cc
:1018200001003a0028b42000880078000000eb0096
:10183000010037000000e800614178000204e00088
:10184000fcff3a00800478006fb197000200e000ce
:1018500003003200890f510001003100820478003a
:101860000005eb00898f5500010036000985550001
:10187000680767002a003a00110037003c0090001a
:101880000068a300070032000d017800010220006b
:101890000c00780019ff07000000e00006003a0085
:1018a000060037008c00780000022000fd030700ce
:1018b000e10f4000010032008d06e8000a05e90052
:1018c0000a00e000edff3a000085eb00140037004d
:1018d0003c0090000068a300090032000800780076
:1018e000b000fb00000478000d0178000c007800c7
:1018f00002ff07000000e00008003a00080037007f
:10190000880078003100fb00010478008c0078002a
:10191000e4030700e10f4000010032008d06e800fb
:10192000090078008004e9000000e000e8ff3a00c8
:101930000e00e000cf033200110037003c009000a1
:101940000068a300070032000d01780001022000aa
:101950000c007800e9fe07000000e00006003a00f5
:10196000060037008c00780000022000cd0307003d
:10197000e10f4000010032008d06e8000a05e90091
:101980000a00e000edff3a00ba0337009fb197006c
:101990004302780093b79f00cfa2de00482bdd0002
:1019a0004820de0000007300c828de00e0cf9f0062
:1019b0000e48a300080032000004e00006003200d8
:1019c000e14f400004003200f0cf9f0084d79f0019
:1019d0002900200002003700f4cf9f0019002000ea
:1019e000e7fc2f008f8343000704e80096ff3700d1
:1019f000e0cf9f00e8fc2f000f04440019002000f6
:101a000091ff3700e0cf9f000e0cb3000170200063
:101a100081006700700067000100e00019023200d9
:101a20000ec8a3000200320061002000e1b79f0051
:101a30000000e000060032001fb097006800500070
:101a40003002be002003be0090b79f0006003700a2
:101a50001fb197004200be0092b79f0042050700e9
:101a60000002be000203be00a4b79f00b5b79f00ee
:101a7000c6b79f00d7b79f006022b8006033b80098
:101a80002fb09700bfb097004fb19700dfb197001c
:101a9000870407000000e0000a003d002fb0970017
:101aa000bfb097004fb19700dfb1970003f0a200dd
:101ab000a0b79f00b1b79f00c2b79f00d3b79f00e8
:101ac0003e00b3000000eb0090af9f006022b80022
:101ad0006033b8002fb09700bfb097004fb19700a8
:101ae000dfb19700d60407000000e00034003200a8
:101af00024fd2f000f0242002fb09700bfb09700c7
:101b00004fb19700dfb19700690507001fa8970044
:101b10000000e9006302b900a200200011000900e2
:101b20000202d80090af9f000000e00002003d00dc
:101b30000000e90090af9f001fac97000840ea004a
:101b40000cfe07002fb29700bfb297004fb397006b
:101b5000dfb39700740507000002be000203be0059
:101b6000d4af9f00e5af9f00f6af9f0087b79f00ff
:101b70006022b8000600200007ff23004c04070085
:101b80000000e00002003d000804e9000b003700ff
:101b90006022b80006002000470224005fa89700da
:101ba000efa897007fa997008fb197004504070021
:101bb0000000e000020035000804e80098af9f0034
:101bc000efb29700ec8f52000f003c000540780008
:101bd0008bfd07000002be000203be002fb097007d
:101be000bfb097004fb19700dfb19700b203070075
:101bf0000002be000203be00a4b79f00b5b79f005d
:101c0000c6b79f00d7b79f001fac9700e90f5400dd
:101c100015003c006022b8006033b8002fb0970078
:101c2000bfb097004fb19700dfb197008404070061
:101c30000000e000310032002fb09700bfb09700e5
:101c40004fb19700dfb19700e6040700e00f5000a6
:101c5000e08f5800e00f5900e08f590027003a004c
:101c6000e10f5400250034000400200005002e0080
:101c7000b6e02200170124005fa89700efa89700a4
:101c80007fa997008fb19700090407000000e000ca
:101c900002003d006904540001003700680454004c
:101ca00098af9f002fd09700b2fd07000002be0042
:101cb0000203be00d4af9f00e5af9f00f6af9f00c8
:101cc00087b79f002fb09700bfb097004fb1970024
:101cd000dfb1970000040700c20407000004be0043
:101ce0006000b8006011b800a0b79f00b1b79f00b6
:101cf000c2b79f00d3b79f00160037002fb09700e0
:101d0000bfb097004fb19700dfb19700b50407004f
:101d10000004be00e40407000002be000203be008f
:101d20002fb09700bfb097004fb19700dfb1970079
:101d3000730507000002be000203be00a4b79f00a7
:101d4000b5b79f00c6b79f00d7b79f000000eb0054
:101d500090af9f00a1b4200010c0b3000500370071
:101d6000e4804000b10f5400a18f5c0003003900f3
:101d70000040e800ea4f5000f9ff3a00e0cf9f0032
:101d80009fa8970081805500efb297008580500092
:101d90000005fb000a8550000500e000010032004c
:101da0000a05e90063006700010032000a05e90046
:101db0000e28a30039003200610167000e18a3004d
:101dc0000f0032003c0090000068a30006003200c3
:101dd000b10220000200e000010032008180e80032
:101de0000d0178000d003700b00220000200e00075
:101df000010032000080e8008c0078000e003700ff
:101e00000200e000220032003c0090000068a300c5
:101e1000070032000d017800010220000c0078005c
:101e2000b6fd07000000e00006003a001800370089
:101e30008c007800000220009a020700e10f4000a9
:101e4000130032008d06e800110037003c009000be
:101e50000068a300070032000d0178000103200094
:101e60000c007800a5fd07000000e00006003a0025
:101e7000060037008c00780000032000890207006c
:101e8000e10f4000010032008d06e8000a05e9007c
:101e90000a00e000edff3c00570037000e38a300b9
:101ea00014003a00110037003c0090000068a300c5
:101eb000070032000d017800010220000c007800bc
:101ec0008efd07000000e00006003a000600370023
:101ed0008c0078000002200072020700e10f400031
:101ee000010032008d06e8000a05e9000a00e00062
:101ef000edff3c00610167000e18a3000e003200e8
:101f00003c0090000068a30005003200b1022000f0
:101f10000200e000220032008180e800200037004b
:101f2000b00220000200e000010032000080e80062
:101f30008c0078002c0037000200e0002e003200f8
:101f40003c0090000068a300030032000d017800ff
:101f500001022000130037008c00780000022000ee
:101f6000210037003c019000a0b420008100fb005c
:101f70000268a30010003200c208dd0081004000aa
:101f80001101be000800be00df040700a20020000f
:101f900003002000ec0407000103200080804000c3
:101fa0000d0178000c00780054fd07000000e000ef
:101fb00010003a0010003700c208dd008100400028
:101fc0001101be000800be00cf040700a2002000df
:101fd00003002000dc040700020320000001410090
:101fe0008c007800020078002e020700e10f40000c
:101ff000010032008d06e8006fc897008040e900bc
:10200000e1cf9f000004e000d6ff3a001300370044
:102010003c0090000068a300070032000d0178002a
:10202000010320000c00780034fd07000000e000f0
:1020300006003a00060037008c00780000032000fc
:1020400018020700e10f4000010032008d06e80091
:102050001fa897000000e90090af9f001fa89700fd
:102060000000e000eaff3c006fb39700e80f530068
:102070000300340080c0b300e0cf9f0002003700af
:10208000cfeb9700e7cf9f006fc897008005fb005c
:10209000efb097008b8550000004e0001000320084
:1020a0003c0090000068a300070032000d0178009a
:1020b000e10220000c00780010fd07000000e000a5
:1020c00006003a00060037008c007800e00220008d
:1020d000f4010700e10f4000010032008d06e80026
:1020e0006fc89700a3fc07000002be000203be00f9
:1020f0002fb09700bfb097004fb19700dfb19700a6
:1021000009040700b70307002d0037003c019000c9
:10211000a1b420000000fb000268a3001000320000
:102120004200dd00808040001101be000800be00ba
:1021300075040700a20020000300200082040700ad
:1021400001032000808040000d0178000c00780021
:10215000eafc07000000e00010003a001000370021
:102160004200dd00808040001101be000800be007a
:1021700065040700a200200003002000720407008d
:1021800002032000000141008c007800020078006a
:10219000c4010700e10f4000010032008d06e80095
:1021a0006fc997000200fb004200dd00a1b42000cf
:1021b000008040001001be000800be00620407005d
:1021c0000004be00efc897000140e900e0cf9f0087
:1021d0000104e000cdff3a00110037003c00900000
:1021e0000068a300070032000d0178000103200001
:1021f0000c007800c1fc07000000e00006003a0077
:10220000060037008c00780000032000a5010700bd
:10221000e10f4000010032008d06e8008b05e90067
:102220000b00e000edff3a000e38a30091013200f0
:102230000a00e0008f0134003c0090000068a30019
:10224000070032000d017800010220000c00780028
:10225000aafc07000000e00006003a000600370074
:102260008c007800000220008e010700e10f400082
:10227000010032008d06e8000a05e900eeff3a0091
:102280007c0137008e007800010cb20011003a008a
:102290000000e000040032009fb197004304be003c
:1022a00093b79f00040037001fb2970044047800e2
:1022b00094b79f00cfc4de00e00f5400e08f5c00b5
:1022c0000e003d003e00b30060041400e0841c00da
:1022d0000a0037000000e000040032009fb29700bf
:1022e0004504be0095b79f00040037001fb3970058
:1022f0004604780096b79f008004eb00efb3970088
:102300000700e00006003a000880740000f0a70013
:102310000000ea000000e9004f00de00e0b79f0087
:102320000e007800000cb200c0af9f000004200037
:10233000cfa89700808f50002300320003003c009c
:102340000100e000080032002d00370000082000e6
:102350004fa99700800f51000d003200000c2000a3
:10236000800f510026003a00a1b4200010c0b30035
:10237000e4804000b10f5400a18f5c001f003900c1
:102380000040e800ea4f5000f9ff3a001b00370018
:1023900010c0b3000201200003002000820f54008f
:1023a000838f5c0015003900441add00cc11de007b
:1023b000830172004411dd000040e800e84f500046
:1023c000f6ff3a000d00370010c0b3008200200075
:1023d00003002000820f5400838f5c000700390047
:1023e000c31add00cd11de00838172004311dd00d0
:1023f0000040e800eb4f5000f6ff3a00e0cf9f00ae
:102400006fcb97000600fb00efb39700870f5000db
:1024100002003d00e7cf9f0004003700efb09700b7
:10242000808f500001003d00e0b79f000b00e000ee
:102430000300320063006700010032008b05e900f1
:102440000ee8a300060032006fb19700828f55009e
:102450000200340082855500010037008005eb0042
:10246000efc997000300fb000002eb00a4b79f0038
:10247000808f55000200340000805500a0b79f00f7
:102480000e28a3003c003200610167000e18a30073
:102490000f0032003c0090000068a30006003200ec
:1024a000b10220000200e000010032008180e8005b
:1024b0000d0178000d003700b00220000200e0009e
:1024c000010032000080e8008c0078000e00370028
:1024d0000200e000100032003c0090000068a30001
:1024e000070032000d017800010220000c00780086
:1024f00002fc07000000e00006003a00060037007a
:102500008c00780000022000e6000700e10f400088
:10251000010032008d06e800afb297000500e00030
:1025200052003200050578003c0090000068a300ce
:10253000070032000d017800010320000c00780034
:10254000eefb07000000e00006003a00060037003e
:102550008c00780000032000d2000700e10f40004b
:10256000010032008d06e8000a05e900eeff3a009e
:10257000aab79f003d0037002fb397000600e00088
:10258000160032000e38a30014003a000605780049
:102590003c0090000068a300070032000d017800a5
:1025a000010220000c007800d4fb07000000e000ce
:1025b00006003a00060037008c0078000002200078
:1025c000b8000700e10f4000010032008d06e8006e
:1025d0000a05e900eeff3a00aab79f006101670013
:1025e0000e18a3000f0032003c0090000068a3000a
:1025f00006003200b10220000200e00001003200bb
:102600008180e8000d0178000d003700b002200045
:102610000200e000010032000080e8008c00780039
:102620000e0037000200e000100032003c00900075
:102630000068a300070032000d01780001022000ad
:102640000c007800adfb07000000e00006003a0037
:10265000060037008c00780000022000910007007f
:10266000e10f4000010032008d06e800efb3970053
:102670000702e9006320b90000017800a2af9f00c3
:102680004222dd00a0b420000002420004057800d0
:10269000cfad97005c003700efb197008301e900f0
:1026a000e3b79f0000042000808f55003700320000
:1026b00003003c000b00e000070032003d00370043
:1026c00000082000808f550020003200000c200000
:1026d000808f550037003a000e48a30010003200ea
:1026e0001a02be000401be000800be00f4b79f003d
:1026f00085bf9f0004030700e0cf9f000000fb00a0
:10270000cf80de007fb297008fba97000401be0031
:10271000100307000004540081845c0007003700a8
:102720001a017800110009000284d800a2002000dc
:10273000110009000280d800e1cf9f006fca970006
:102740000443b000e4cf9f001a00370010b320000c
:102750000e58a3000100320000b22000a1b42000f6
:10276000810055000801be008100e900030033002c
:102770008301d1000281d300fbff37006f016100ac
:1027800060417900e2cf9f000a0037000800be00d8
:10279000afaa97008502e900030033008100d10051
:1027a0000080d300fbff3700674060000043b000ab
:1027b000e0cf9f00bc0090006fcb97000600fb00ad
:1027c0000168a300070032000d0178008000780046
:1027d0000c00780049fb07000000e00005003a000b
:1027e000050037008c0078002e000700e10f400044
:1027f000010032008d06e800afab9700e383530081
:10280000a7af9f00640555006fb097000000e0007f
:10281000a1ff3a000e38a30016003200afb09700b7
:102820000100e00013003400010578003c00900036
:102830000068a300070032000d01780001022000ab
:102840000c0078002dfb07000000e00006003a00b5
:10285000060037008c0078000002200011000700fd
:10286000e10f4000010032008d06e8000a05e90092
:10287000eeff3a003fa9970012407800e0cf9f009a
:102880000004e00036fb3a000d0078004f077800a6
:102890004f06be004f05be004f04be006f02b100e0
:1028a00000000600889fbe0001047800b800900078
:1028b0008084eb000118a3003a0032001801900058
:1028c0000198a30002003a000200e00035003a003f
:1028d0000190a0003104980080047800f90fb20044
:1028e0000200e00002003a0028009000000c78008e
:1028f000ea8f540005003a000178a30003003a0073
:1029000088007800d0002000e6ff07001800900043
:10291000d8009000810f50000b0032000000e8004a
:10292000100498001800780009487800000ce800ae
:1029300011c0b30080b9200001487800ea8f54002c
:1029400018003a0005003700880078000940780038
:10295000170007008004780012003700380090004c
:102960000088a3000f00320018019000a80090001a
:102970004800900031f8070098009000810f500047
:1029800004003200380090000003b30030049800c7
:102990008084eb000000eb001004980028009000f9
:1029a000000c7800090078004f04be00000006000b
:1029b0000200fa00889fbe00a0ff9f00010478007b
:1029c000380090000068a30033003a00e200600085
:1029d00005003a000003b300300498001104980089
:1029e0000080eb002e003700d80490000900e000c2
:1029f00006003a0012002000e680570048009000d0
:102a00000ef807001904980023003700a800900072
:102a10000100e00008003a00b1b92000210498004c
:102a2000010c780021002000510498001104980046
:102a30000030a0003004980018019000a800900019
:102a400048009000fdf70700280090008080eb0010
:102a500011049800aff8970001487800000ce800d6
:102a60002ff89700ea4f50000b003a003800900012
:102a70000088a3000800320018019000a800900010
:102a800048009000edf707000000eb0010049800ec
:102a9000a8009000010c7800aff897000100fb003f
:102aa0004f04be000080fa000000060000c0da00fb
:102ab00000000600000000002800fa00889fbe0009
:102ac0008a9fbe008c9fbe0007067800878669003b
:102ad0000c003b00030478008704780008f0a10094
:102ae00009f0a100840f5000858f5800860f59000f
:102af000890f5c00030033000cf0a20001003a00d3
:102b00000cf0a100ff0007006400e1005f0032004c
:102b1000780147006408e100610032006c01470061
:102b2000748557003200be001201be003a04be0098
:102b30001a05be001e039000be0a900085035300d4
:102b400006003d000004fd008104fd000205fd00bb
:102b50008305fd008703ea00050378000df8a30054
:102b60000400320060041400e0841c0060051d00b5
:102b7000e0851d006022b8007d0320000d38e100d3
:102b80008006eb000b0039004433dd00f300b20097
:102b90008301730039003700848272000d027800cf
:102ba000e10664008b85d1000a85d3008984d300b7
:102bb0000884d3008703e900f7ff3b0008004000ca
:102bc000898048000a0149008b81490004003b00cc
:102bd00060001000e080180060011900e081190019
:102be0000358a300090032008d82720084827200b3
:102bf000610260008301d1000281d3008180d30093
:102c00000080d3000603e8001b0037000348a30040
:102c100017003a000600e000170034000603e90040
:102c20000d00a30000004800818048000201490017
:102c3000838149000348a3000f003a000600e0002a
:102c4000090034000603e9000000400081804800cc
:102c5000020149008381490001003a000003eb00b2
:102c60000348a300f5ff32006022b80002003700dd
:102c700084827200618266007600070003f0a10082
:102c80000cf0a70003f0a000b20037006401470079
:102c90006408e10002003a000df8a300aa003a001f
:102ca0003200be001201be00aa0037000000000082
:102cb0008f1fd100ad0107008f87e9000000e00001
:102cc00000000600809feb00a80107008f87e90045
:102cd0000000e000000006002800fa00889fbe0007
:102ce0008a9fbe008c9fbe0003866b008500070094
:102cf0006400e100440032006408e1004a00320050
:102d00006100e100460032006108e1004900320044
:102d1000ec0647006000b8003d02be003d03be0067
:102d2000f48657006011b8003d04be003d05be00aa
:102d30007d0320000b0037000000a0008d06e90095
:102d4000130032000402420085824a0006034b0051
:102d500087834b0000004000818048000201490049
:102d6000838149000802520089825a000a035b00ed
:102d70008b835b00f0ff3b000802420089824a001f
:102d80000a034b008b834b008d06e900edff3a00f0
:102d90008482720086827200f707b2008782720016
:102da00001003200150020001e0490003e0b900030
:102db00006035400e63fb0000368a300070032009a
:102dc0000000a7000500a0008301d1000281d3000c
:102dd0008180d3000080d3000603e8008301d10086
:102de0000281d3008180d3000080d3000002eb0079
:102df0000482d2001700070003f0a1000cf0a70026
:102e000003f0a00053003700640247006408e100ab
:102e10004d0032003400be003401be00f6ff370022
:102e20006108e100480032006011b8006000b8009d
:102e3000f1ff370003ff270002002000fbff3700ef
:102e4000801feb00490107008f87e9000000e000c8
:102e5000000006001800200057002000080453005e
:102e60000d003d000600200097fc2f000740e10008
:102e70001e00340084827200610260008301d10070
:102e80000281d3008180d3000080d3000804e800d1
:102e9000f8ff3a0047002000610460000504740058
:102ea000040464000d00320061004000e08048002e
:102eb00060014900e081490003b8a5000700320025
:102ec0000603e8006538e10004003a008301d10000
:102ed0000281d3008180d3000080d300f87f2000de
:102ee0000830e10003003500080378006000b800f6
:102ef0006011b8004433dd00f300b20083017300b9
:102f000000000600680447000294be000094be0062
:102f1000fc0447008694be008494be00090078003b
:102f20005b0107000800780059010700990078004c
:102f3000814f70000b003b000800be003401070009
:102f40004f00b10003003700f3ff2700f2ff2f000e
:102f50006110b9004f06be004f05be004f04be0011
:102f60000080fa000000060081037800e2f7070005
:102f70000001be006000b8000478a30013003a000e
:102f80006220e10015003e000d0039008301d100f0
:102f90000281d3008180d3008301d1000281d3005c
:102fa0008180d3008301d1000281d3008180d300ce
:102fb0000538b000c42add00f300b200838172003e
:102fc00007f0a70003f0a00000000600f3ff2700b1
:102fd000f2ff2f006110b900fbff370003ff27004d
:102fe000f7ff37001400fa00889fbe008a9fbe00da
:102ff0008c9fbe000004be000205be0068004700b2
:103000000a90be000890be00210107000070a700d2
:103010000bf0a1000bf8a30020003a009e099000dd
:103020000e099000fe0090006e0090009e0290003d
:103030003443200084825200c6ff32000a003c0064
:10304000b4fc2f000428e100140034008301d100f7
:103050000281d3008180d3000080d3008502e80084
:10306000faff3a00bbff3700b40020000428e1005b
:1030700007003c0000004000818048000201490038
:10308000838149008502e900faff3a00b1ff370069
:103090000300280002002000010037006011b80082
:1030a0006000b800abff37006011b8001f013700a7
:1030b0001400fa00889fbe008a9fbe008c9fbe004d
:1030c000040678000004be000205be006800470048
:1030d0000a90be000890be00ed0007006200e1000b
:1030e0000800be000a01be00040020000b003a00e8
:1030f0001e029000e43fb1006e009000fe009000c0
:103100000e0990009e099000f300b20005fe230016
:10311000858171000bf0a70003f0a000040e780079
:103120008cff3700000000002800fa00889fbe00d6
:103130008a9fbe008c9fbe0003866b0071ff070054
:103140000028a30064003a000128a30067003a00a9
:103150000008a30062003a000108a30065003a00dd
:103160001e009000be08900081064000ed3fb100b7
:10317000f4805700ee019000111ab8008e099000fb
:10318000311bb8009e099000311cb800511db800d9
:10319000f485570046000700fe0190003a00070042
:1031a0008b85e8003e0007008e0990004000070074
:1031b000ee019000340007008b85e800380007001e
:1031c0008e099000400007009e0990001b18b8006f
:1031d000890440000a854800fe0190003400070081
:1031e0008b85e80038000700ee01900030000700f2
:1031f0008e0990001b18b800890440000a85480019
:103200000a98a30008003a000402420085824a009e
:1032100006034b0087834b0008044c0089844c0054
:103220000a054d008d06e900848272008502730054
:103230004c3add00850272000100320015002000ca
:10324000443ade001400b2004538de00cb45dd0014
:103250000b007000c540de00cb4ddd008b807000a0
:103260004549de00cb55dd000b017100c551de0084
:103270000d037800f7fe070003f0a1000cf0a70093
:1032800003f0a00033ff37001b18b8008502400090
:1032900006834800e0834b0060044c0007003700c1
:1032a0001b18b8000603400087834800faff370068
:1032b0001b18b8008703400008844800e0844c00d5
:1032c00060054d00000006001b18b800080440000f
:1032d00089844800faff37000108a3001aff3a006a
:1032e0005800be005801be00e3ff37000008a300ed
:1032f00015ff3a0009047800f9ff370000000000cc
:1033000007f0a200ecfd37006022b80006022000a2
:103310000000d0008180d2000482d2008582d200d9
:103320000000a0000202520083825a000300310014
:103330000202420083824a000000a1000603e90065
:10334000f3ff3a0000000600efff07000400be0094
:1033500000000600020ab900001bb9000200b80014
:10336000810042008100430000000600889fbe00eb
:103370008a9fbe008c9fbe000404be000605be00ee
:10338000809fbe00829fbe002f00070004067800c9
:103390000800be000a01be002b000700840678006a
:1033a0004f03be004f02be008d4f76007fb09700e6
:1033b00013003300f0ff2f008b8f6b0006003b00e3
:1033c0000d0666000c00a7000a00370007f0a600f3
:1033d000100020000a003700880f5200898f5a0021
:1033e0008a0f5b008b8f5b00030039001000200008
:1033f00001003e000000200007f0a7000000ea00e6
:103400004f06be004f05be004f04be000000060080
:10341000e48240001078a3000700320064024000fc
:103420001178a3003400be001401be000400320075
:103430000330a700000006003500be001501be00e5
:103440000330a0000000060005ff27000582610090
:10345000070032000428e1000100320024000500ca
:103460000600070001003a004400050004080500ba
:1034700002000700f9ff3a00140005006f826100a6
:103480008102700085027100850272000000060052
:10349000800078005002be005003be004439de00b8
:1034a000f700b200f37f2000030161000900320041
:1034b0000218e10016003a008501720083017300d2
:1034c000838173000008200015003a0040002000ae
:1034d000130037008501720083017300838173003c
:1034e00005003a0004a8be0006a8be001000200097
:1034f0000b0037000201e9000402420085824a0005
:1035000006034b0087834b000748a300f9ff3200f6
:103510000740a00004a8be0006a8be0020002000ae
:10352000800098009200980000000600889fbe006e
:1035300000827000040271000482710024003200d5
:1035400036432000c50020008383cf000a003900e5
:103550000541b1008283cf00070039000541b10069
:103560008183cf00040039000541b1008083cf0082
:10357000010039000541b10085c353006022b80045
:10358000120032000a003b00848272006102600077
:103590008301d1000281d3008180d3000080d30059
:1035a0000603e8008743e800f7ff3a00070037000a
:1035b00000004000818048000201490083814900e9
:1035c0000603e9008743e900f9ff3a0021fe0700fe
:0835d0004f04be0000000600dc
:020000040000fa
:1035d800534c00003320000025640000202d00001b
:1035e80020250000662000000a000000534c00005f
:1035f8003220000025640000202d00002025000056
:10360800662000000a000000534c00003120000032
:1036180025640000202d0000202500006620000001
:103628000a00000053430000202500006420000029
:103638002d20000025660000200a0000005300002d
:103648005231000020250000642000002d200000d9
:1036580025660000200a00000053000052320000d6
:1036680020250000642000002d20000025660000b1
:10367800200a0000005300005233000020250000fb
:10368800642000002d20000025660000200a0000ac
:10369800005300005320000025640000202d000086
:1036a80020250000662000000a00000020250000f8
:1036b8002e300000336600002009000000200000c2
:1036c800252e000030330000662000000a000000ac
:020000040000fa
:1036d8001000fa00889fbe00008fbe0022079800e5
:1036e8003307980044079800550798006607980024
:1036f800770798002e019000be0190001e00be00c2
:103708000ff507000004be002e019000be019000d6
:103718004e009000de00900009f507000001be0091
:103728000800be0064f507000004be006e019000aa
:10373800fe0190003eb89700ceb8970000f507004c
:103748000001be000800be0016f607006e019000da
:10375800fe019000fbf407004f04be000080fa0051
:10376800000006000800fa00881f7800008fbe00dd
:10377800220798003307980018c0b3002e01900064
:10378800be0190001e00be008ff507000000e0009b
:1037980001003c000044eb000804e0000200320095
:1037a8001e00be00020037002e009000be009000f0
:1037b8004f0478000080fa00000006000800fa00b4
:1037c800881f7800008fbe002207980033079800f2
:1037d80018c0b3002e019000be0190001e00be006c
:1037e80077f507000000e000010035000044eb0019
:1037f8000804e000020032001e00be00020037008c
:103808002e009000be0090004f0478000080fa005f
:10381800000006000000fa001041800021418000ed
:1038280042448000809fbe00821f7800c0ae2900fd
:10383800801f780069f60700e8875700304180004c
:103848004141800052448000809fbe00821f780062
:10385800a0af2900801f780060f60700e8875700ae
:10386800504180006141800062448000809fbe001a
:10387800821f780080b02900801f780057f6070063
:10388800e8875700704180008141800072448000c1
:10389800809fbe00821f780060b12900801f7800d9
:1038a8004ef60700e887570090418000a14180004c
:1038b80082448000809fbe00821f780030b22900b9
:1038c800801f780045f60700e8875700b041800060
:1038d800c141800092448000809fbe00821f780012
:1038e80010b32900801f78003cf60700e8875700ce
:1038f800d0418000e1418000a2448000809fbe004a
:10390800821f7800f0b32900801f780033f6070083
:10391800e8875700f041800001428000b2448000ef
:10392800809fbe00821f7800d0b42900801f7800d5
:103938002af60700e88757000080fa000000060012
:103948000000fa001041800021418000809fbe00e5
:10395800a0b52900801f780020f60700e6875700e9
:103968003041800041418000809fbe00a0b5290001
:10397800801f780019f60700e6875700504180003d
:1039880061418000809fbe00a0b52900801f78009b
:1039980012f60700e68757007041800081418000d9
:1039a800809fbe00a0b52900801f78000bf6070095
:1039b800e687570090418000a1418000809fbe00ab
:1039c800a0b52900801f780004f60700e687570095
:1039d800b0418000c1418000809fbe00a0b5290091
:1039e800801f7800fdf50700e6875700d04180006a
:1039f800e1418000809fbe00a0b52900801f7800ab
:103a0800f6f50700e6875700f04180000142800084
:103a1800809fbe0030b62900801f7800eff50700b0
:103a2800e68757000080fa00000006000000fa0050
:103a3800004a8000114a8000104188002141880016
:103a4800204a8000314a8000304188004141880086
:103a5800404a8000514a80005041880061418800f6
:103a6800604a8000714a8000704188008141880066
:103a7800804a8000914a800090418800a1418800d6
:103a8800a04a8000b14a8000b0418800c141880046
:103a9800c04a8000d14a8000d0418800e1418800b6
:103aa800e04a8000f14a8000f04188000142880025
:103ab8000080fa00000006000200fa00000f7800fb
:103ac8000080fa00000006000200fa00000f7800eb
:103ad800110020001e0078000008dd00800078003a
:103ae800d016800001007000d01688000080fa000f
:103af800000006000400fa00100798000080eb00a0
:103b0800000f7800110020001e0090000008dd0062
:103b18009e001000d016800000806000d01688003b
:103b28000080fa00000006000000fa001102800080
:103b3800f0f12f00008060000050a0001002880003
:103b48004460a8008020ef008220ef000021ef00f1
:103b580000032000100888000003280020088800bf
:103b6800a1048000f0ff28000080600000d0a000c1
:103b7800a00488008c60a8008460a90000002800c8
:103b8800800888000621ef00f03f200060088800c8
:103b9800b1048000f08f2f00008060000090a0002a
:103ba800b00488008cc0a80084c0a90000012800c7
:103bb800900888000a21ef00f07f2700700888002d
:103bc800b1048000f0ff280080806000000023001e
:103bd80001007000b00488008ce0a80084e0a9000f
:103be80080002800000e8800c221ef00e07f24003a
:103bf800200e8800c621ef0010002000400e88002b
:103c0800ca21ef0010102000a00e8800d822ef0073
:103c18008421ef0060002000800c8800e10480000f
:103c2800f0ff28000080600000d0a000e0048800b9
:103c38008e21ef008e60a8008660a9000080eb004e
:103c4800401588000622ef00d202a900d242a9003e
:103c5800cda2a900cdc2a800de82a800dea2a900dc
:103c6800dec2a900de62a900de42a800de02a900c9
:103c7800de22a800c642a800d822ef0010002000cb
:103c8800404b880010002000600c88000080fa007b
:103c9800000006000000fa0000002800b0108800ac
:103ca800004c2800c010880070002000f010880028
:103cb8000105800080ff2f00008060000010a00038
:103cc800000588008f00a8008700a9000080fa007e
:103cd800000006000000fa0000402800601088007c
:103ce800004028007010880070002000a010880094
:103cf800c1048000f0f82f008080600000032000dd
:103d080001007000c00488008d20a8008520a9004b
:103d18000080fa00000006000200fa00004f780058
:103d2800000000000100370000000000310480009e
:103d380000202000008060000000e000faff320050
:103d48001e00fb00d01088008720a9000080fa0020
:103d5800000006000000fa00889fbe008a9fbe008f
:103d68008c1f78000428ef007200370030322000e2
:103d7800101188002342a900e002a9008001200058
:103d8800201188000000000001003700000000003a
:103d98002104800000102000008060000000e00086
:103da800faff320020118000404088008500a900f9
:103db800e002a8000628ef00040037000000000019
:103dc800304080000000e80030408800304080002b
:103dd800ea0f5000f9ff3600303220001011880039
:103de8002342a800e002a90000a0260020118800b4
:103df80000000000010037000000000021048000de
:103e080000102000008060000000e000faff32008f
:103e180020118000404088008500a900e002a80029
:103e28000628ef0004003700000000003040800042
:103e38000000e8003040880030408000ea0f500061
:103e4800f9ff360030322000101188002342a90003
:103e5800e002a900214080008097200000804000f7
:103e6800104078000080fb0020118800000000004e
:103e7800010037000000000021048000001020002d
:103e8800008060000000e000faff3200201180008e
:103e9800404088008500a900e002a8000628ef003d
:103ea8000400370000000000304080000000e800f7
:103eb8003040880030408000ea0f5000f9ff36009b
:103ec80030322000101188002342a8002362a80085
:103ed800e002a9002422ef000000000001003700e2
:103ee8000000000021048000001020000080600015
:103ef8000000e000faff320020408000211180001d
:103f0800000140008088200000004100010878007e
:103f18008500a900e002a8000000000000000000e1
:103f28000000000000000000204080000000e800c1
:103f38002040880020408000eb0f50008bff3600a7
:103f48001228ef00700037001428ef001600370021
:103f580092408000a440800090408000a1408000f2
:103f68008101e8006500b900000078000300400006
:103f7800c200dd00008a2000008040001000be0062
:103f88006511b9000201780004014100c211dd0089
:103f9800028a2000028141000089be00a040800002
:103fa8000000e800a0408800a0408000e30f500017
:103fb800e7ff360098408000904080008000400075
:103fc8008088200000804000100078008000eb000e
:103fd8009df307007441b90082017800028b20002c
:103fe800028141000089be006000b800d04288000c
:103ff800e14288001428ef00130037009040800049
:10400800a24080006500b90000007800020040006e
:10401800c200dd00008a2000008040001002be00bf
:10402800d0428000e14280000001be000400be00d2
:10403800c4f20700d0428800e1428800a040800016
:104048000000e800a0408800a0408000e40f500075
:10405800eaff3600d0428000e142800002002000e2
:10406800030a240014f30700d0428800e1428800c4
:104078009c408000a04080008000400040992000c3
:104088000080400010007800cf80de006bf307004e
:104098000005be009040800080004000409820004d
:1040a8000080400010007800cf80de0063f3070036
:1040b800d8428000e942800002002000a347240083
:1040c800829fbe006033b8000a02be000001be0035
:1040d8000800be007efd0700e48757000001be000f
:1040e80000002000a147240095f20700c261dd000e
:1040f80002942000028141000089be0090408000a7
:104108000000e8009040880090408000e70f5000d1
:104118008dff360045fe0700c04480008000eb009c
:1041280049f307001042880021428800d0448000eb
:104138008000eb0044f307003042880041428800c9
:10414800e04480008000eb003ff307005042880005
:1041580061428800f04480008000eb003af30700d9
:1041680070428800814288004f0678004f05be00e3
:104178004f04be000080fa00000006000000fa00ac
:10418800000028000011880030322000101188003b
:104198008500a9008d00a800c104800080ff2f00c1
:1041a800008060000010a000c0048800e002a900a0
:1041b80000012000201188000000000001003700e5
:1041c8000000000021048000001020000080600032
:1041d8000000e000faff32008500a900e002a80014
:1041e80000002800001188003032200010118800db
:1041f8002342a8008500a9008d00a800c104800002
:1042080080ff2f00008060000010a000c00488001c
:10421800e002a90000a0260020118800000000008c
:104228000100370000000000210480000010200079
:10423800008060000000e000faff32008500a9005d
:10424800e002a80000002800001188003032200099
:10425800101188002342a9008500a9008d00a8003c
:10426800c104800080ff2f00008060000010a000c3
:10427800c0048800e002a900000220002011880084
:104288000000000001003700000000002104800049
:1042980000102000008060000000e000faff3200fb
:1042a8008500a900e002a80000002800001188008d
:1042b80030322000101188008500a9008d00a80068
:1042c800c104800080ff2f00008060000010a00063
:1042d800c0048800e002a9008001200020118800a5
:1042e80000000000010037000000000021048000e9
:1042f80000102000008060000000e000faff32009b
:104308008500a900e002a80000002800001188002c
:1043180030322000101188008500a9008d00a80007
:10432800c104800080ff2f00008060000010a00002
:10433800c0048800e002a900e00d200020118800d8
:104348000000000001003700000000002104800088
:1043580000102000008060000000e000faff32003a
:1043680020118000404088008500a900e002a800d4
:104378000628ef00040037000000000030408000ed
:104388000000e8003040880031408000f00720003d
:10439800808f5000f8ff36000000280000118800c8
:1043a80030322000101188002342a800e002a90042
:1043b8002362a800e062a9002422ef0000000000a8
:1043c80001003700000000002104800000102000d8
:1043d800008060000000e000faff32002011800039
:1043e800404088008500a900e002a8008500a900d7
:1043f8008d00a800c104800080ff2f0000806000ad
:104408000010a000c00488000080fa000000060028
:104418000200fa00000f780010002000b040880069
:1044280005003700b0408000b2fd0700b0408000b2
:104438000000e800b0408800b0408000e50f500060
:10444800f8ff3600605a2f009e00400040ed2f0014
:10445800808f500003003d003000200096fd0700cb
:1044680007003700605a2f009e004000c01220004d
:10447800808f500002003400400020008efd0700ad
:104488000080fa00000006000000fa00889fbe00c5
:10449800f04280000143800018c0b30002002800e9
:1044a800b34b240048f207000000e00001003c0084
:1044b8000044eb000804e00031003200144380009f
:1044c80025438000f0428000014380000001be00c7
:1044d8000400be00f8f1070002002800c3422400cf
:1044e800829fbe0006002800c7422c00040020005e
:1044f800051a240002002000031a2c0074fc07008f
:10450800e487570002002a00535224008df1070067
:104518000004be00704080008000eb004af20700f3
:104528000001be000800be0086f107000001be00c1
:1045380000002c0001552400a0fc07000001be006b
:1045480000002000514f240086fc070020f20700dd
:1045580000007800604b8800614b8000605a2f0093
:10456800008040008000780001f0a7008100ea0088
:10457800c0122000808f500008003c002c0037003b
:10458800704b8000604b8800604b8000b00e880044
:10459800604b80009eff07002b003700b042800070
:1045a800c14280006011b80029f207000000e00055
:1045b8001200320094428000a5428000b042800080
:1045c800c14280000001be000400be00baf107002d
:1045d80002002800b343240072f207000200200002
:1045e80003112400b4f1070002002a0053522400ea
:1045f80054f107000004be0004003700704b80002f
:104608008000eb0010f207000004be00704080003c
:104618008000eb000cf207000001be000800be009d
:1046280048f10700eaf1070000007800604b8800b5
:10463800604b8000704b8800604b8000b00e880093
:10464800604b800072ff07004f04be000080fa0034
:10465800000006000000fa00881f780020002000f3
:10466800f05c880030fd07008afd07001828ef007d
:1046780007003700000000000500370000000000b8
:1046880003003700000000000100370000000000b0
:104698007dff0700704280008142800018c0b3008f
:1046a80002002400334d2400c7f107000000e00099
:1046b80001003c000044eb000804e00016003a004a
:1046c800104280002142800018c0b30002002e0072
:1046d80083502400bcf107000000e00001003c000a
:1046e8000044eb000804e0000b003a003042800070
:1046f8004142800018c0b30002002400334d24005a
:10470800b1f107000000e00001003c000044eb00ac
:104718000804e000020032004000200050408800f9
:10472800504080000000e00003003a008034200080
:10473800204b8800d6ff370050408000e40f50001f
:10474800ccff3a006429ef0050002000dafc070093
:10475800704280008142800018c0b300020024002b
:10476800334d240096f107000000e00001003500f9
:104778000044eb000804e000c0ff32001042800053
:104788002142800018c0b30002002e00835024008c
:104798008bf107000000e000010035000044eb0049
:1047a8000804e000b7ff3200304280004142800038
:1047b80018c0b30002002400334d240080f1070024
:1047c8000000e000010035000044eb000804e000b0
:1047d800aeff320020002000c04088000a28ef0009
:0447e800abff3700ec
:020000040000fa
:1047ec0000080000600100000000000060090000eb
:1047fc006000000002000000010101000000020046
:10480c0056d3010000b202005a0a5a000a40420074
:10481c000f00000000000000868e96009ea6ae00e1
:10482c00b6bec600ced6de0038005300004f0000e6
:10483c0053004700005d000043003f0000f50600f8
:10484c000807f900041904002505b400068e0700ba
:10485c009d060000002042000000f0004100000016
:10486c00884100000000000000008800c10000002a
:10487c00f0c100000020c2009e0b000002000000ee
:10488c000200000001000000720b00002600000076
:10489c0002000000990b000000990b0009000000b9
:1048ac00000200009b0b0000009b0b000e0201009d
:1048bc0000000000000000000000000006020200e2
:1048cc0000000000720b0000980b000006000000b6
:1048dc0000000000200b000052000000020000004d
:1048ec00303132003334350036373800394142002c
:1048fc004344450046003000313233003435360035
:10490c0037383900616263006465660000286e0008
:10491c00756c6c002900000001000000000a00000a
:10492c000000640000000000e803000000102700f5
:10493c000000a0008601000040420f00008096009d
:10494c0098000000e1f5050000ca9a003b00000049
:10495c00c00900006001000002000000000000001f
:10496c0000000000f03f00000000000000002400e8
:10497c004000000000000000005940000000000052
:10498c00000040008f400000000000000088c300c1
:10499c0040000000000000006af840000000000029
:1049ac00008084002e41000000000000d012630043
:1049bc004100000000008400d79741000000000077
:1049cc000065cd00cd410000000020005fa002007a
:1049dc0042408c00b5781d00af154400ea8ca00055
:1049ec0039593e002946a5005cc3f10029633d00fe
:1049fc00489a64007ec50e001b514a0044f3c20065
:104a0c00e4e4e900634c3d00c7ddd600ba2e770024
:104a1c004e5ffb00f051ef00fc8a5000c759290093
:104a2c00090f6b009f527d00c3942500ad49b20065
:104a3c00545a6200d7d71800e77469009c750000bf
:104a4c00883ce400377e0000000000000000f0000d
:104a5c003f9a99009999990099b93f007b14ae003f
:104a6c0047e17a00843ffc00a9f1d2004d6250006e
:104a7c003f2d43001cebe200361a3f00f168e300c7
:104a8c0088b5f800e43e8d00edb5a000f7c6b00087
:104a9c003e48af00bc9af200d77a3e003a8c300008
:104aac00e28e7900453e9500d626e8000b2e1100cb
:104abc003ebbbd00d7d9df007cdb3d00234292001a
:104acc000ca19c00c73ba000c2ebfe004b48b400fd
:104adc00399c5700772726006ca137001fb8d400eb
:104aec004a7aee008d352600a6acaa0004b67900f1
:104afc00339d35008f1de9001566310023614d0093
:104b0c0017acf800522f6f000e998400d94b40005f
:104b1c002d3005008ee42e00ff2b2b00acf74e0041
:104b2c0015927e0068165900f3f8c2001f6ea5009e
:084b3c00010000000000000070
:020000040000fa
:0200000401f009
:04000000f0bd00004f
:020000040000fa
:0200000401f009
:04000400ff7f00007a
:00000001FF
